{
  "_format": "hh3-artifact-1",
  "contractName": "DonationPlatform",
  "sourceName": "contracts/DonationPlatform.sol",
  "abi": [
    {
      "anonymous": false,
      "inputs": [
        {
          "indexed": true,
          "internalType": "uint256",
          "name": "id",
          "type": "uint256"
        },
        {
          "indexed": false,
          "internalType": "address",
          "name": "recipient",
          "type": "address"
        },
        {
          "indexed": false,
          "internalType": "uint256",
          "name": "goal",
          "type": "uint256"
        }
      ],
      "name": "CampaignCreated",
      "type": "event"
    },
    {
      "anonymous": false,
      "inputs": [
        {
          "indexed": true,
          "internalType": "uint256",
          "name": "campaignId",
          "type": "uint256"
        },
        {
          "indexed": false,
          "internalType": "address",
          "name": "donor",
          "type": "address"
        },
        {
          "indexed": false,
          "internalType": "uint256",
          "name": "amount",
          "type": "uint256"
        }
      ],
      "name": "DonationMade",
      "type": "event"
    },
    {
      "anonymous": false,
      "inputs": [
        {
          "indexed": true,
          "internalType": "uint256",
          "name": "campaignId",
          "type": "uint256"
        },
        {
          "indexed": false,
          "internalType": "uint256",
          "name": "amount",
          "type": "uint256"
        }
      ],
      "name": "FundsReleased",
      "type": "event"
    },
    {
      "inputs": [],
      "name": "campaignCount",
      "outputs": [
        {
          "internalType": "uint256",
          "name": "",
          "type": "uint256"
        }
      ],
      "stateMutability": "view",
      "type": "function"
    },
    {
      "inputs": [
        {
          "internalType": "uint256",
          "name": "",
          "type": "uint256"
        }
      ],
      "name": "campaigns",
      "outputs": [
        {
          "internalType": "address payable",
          "name": "recipient",
          "type": "address"
        },
        {
          "internalType": "string",
          "name": "metadataURI",
          "type": "string"
        },
        {
          "internalType": "uint256",
          "name": "goalAmount",
          "type": "uint256"
        },
        {
          "internalType": "uint256",
          "name": "raisedAmount",
          "type": "uint256"
        },
        {
          "internalType": "bool",
          "name": "fundsReleased",
          "type": "bool"
        }
      ],
      "stateMutability": "view",
      "type": "function"
    },
    {
      "inputs": [
        {
          "internalType": "address payable",
          "name": "_recipient",
          "type": "address"
        },
        {
          "internalType": "string",
          "name": "_metadataURI",
          "type": "string"
        },
        {
          "internalType": "uint256",
          "name": "_goalAmount",
          "type": "uint256"
        }
      ],
      "name": "createCampaign",
      "outputs": [
        {
          "internalType": "uint256",
          "name": "",
          "type": "uint256"
        }
      ],
      "stateMutability": "nonpayable",
      "type": "function"
    },
    {
      "inputs": [
        {
          "internalType": "uint256",
          "name": "_campaignId",
          "type": "uint256"
        }
      ],
      "name": "donate",
      "outputs": [],
      "stateMutability": "payable",
      "type": "function"
    },
    {
      "inputs": [
        {
          "internalType": "uint256",
          "name": "",
          "type": "uint256"
        },
        {
          "internalType": "address",
          "name": "",
          "type": "address"
        }
      ],
      "name": "donations",
      "outputs": [
        {
          "internalType": "uint256",
          "name": "",
          "type": "uint256"
        }
      ],
      "stateMutability": "view",
      "type": "function"
    },
    {
      "inputs": [
        {
          "internalType": "uint256",
          "name": "_campaignId",
          "type": "uint256"
        }
      ],
      "name": "getCampaign",
      "outputs": [
        {
          "internalType": "address",
          "name": "recipient",
          "type": "address"
        },
        {
          "internalType": "string",
          "name": "metadataURI",
          "type": "string"
        },
        {
          "internalType": "uint256",
          "name": "goalAmount",
          "type": "uint256"
        },
        {
          "internalType": "uint256",
          "name": "raisedAmount",
          "type": "uint256"
        },
        {
          "internalType": "bool",
          "name": "fundsReleased",
          "type": "bool"
        }
      ],
      "stateMutability": "view",
      "type": "function"
    },
    {
      "inputs": [
        {
          "internalType": "uint256",
          "name": "_campaignId",
          "type": "uint256"
        }
      ],
      "name": "releaseFunds",
      "outputs": [],
      "stateMutability": "nonpayable",
      "type": "function"
    }
  ],
  "bytecode": "0x6080604052348015600e575f5ffd5b506109b48061001c5f395ff3fe60806040526004361061006e575f3560e01c80635c401fd61161004c5780635c401fd6146100eb5780637274e30d14610118578063ee1554a31461012d578063f14faf6f14610163575f5ffd5b8063141961bc146100725780634d68282f146100ab5780635598f8cc146100cc575b5f5ffd5b34801561007d575f5ffd5b5061009161008c366004610693565b610176565b6040516100a29594939291906106d8565b60405180910390f35b3480156100b6575f5ffd5b506100ca6100c5366004610693565b610239565b005b3480156100d7575f5ffd5b506100916100e6366004610693565b610368565b3480156100f6575f5ffd5b5061010a610105366004610731565b610448565b6040519081526020016100a2565b348015610123575f5ffd5b5061010a60025481565b348015610138575f5ffd5b5061010a6101473660046107b8565b600160209081525f928352604080842090915290825290205481565b6100ca610171366004610693565b61057d565b5f60208190529081526040902080546001820180546001600160a01b0390921692916101a1906107e6565b80601f01602080910402602001604051908101604052809291908181526020018280546101cd906107e6565b80156102185780601f106101ef57610100808354040283529160200191610218565b820191905f5260205f20905b8154815290600101906020018083116101fb57829003601f168201915b50505050600283015460038401546004909401549293909290915060ff1685565b5f8181526020819052604090206002810154600382015410156102965760405162461bcd60e51b815260206004820152601060248201526f11dbd85b081b9bdd081c995858da195960821b60448201526064015b60405180910390fd5b600481015460ff16156102de5760405162461bcd60e51b815260206004820152601060248201526f105b1c9958591e481c995b19585cd95960821b604482015260640161028d565b60048101805460ff19166001179055600381015481546040516001600160a01b039091169082156108fc029083905f818181858888f19350505050158015610328573d5f5f3e3d5ffd5b50827f80230996023d69b50793fa73f1919127c9d8e741d3989743c479169f22e7a2888260405161035b91815260200190565b60405180910390a2505050565b5f818152602081905260408120805460028201546003830154600484015460018501805460609688968796879692956001600160a01b03909216949390929160ff169084906103b6906107e6565b80601f01602080910402602001604051908101604052809291908181526020018280546103e2906107e6565b801561042d5780601f106104045761010080835404028352916020019161042d565b820191905f5260205f20905b81548152906001019060200180831161041057829003601f168201915b50505050509350955095509550955095505091939590929450565b600280545f918291908261045b83610832565b9190505590506040518060a00160405280876001600160a01b0316815260200186868080601f0160208091040260200160405190810160405280939291908181526020018383808284375f920182905250938552505050602080830187905260408084018390526060909301829052848252818152919020825181546001600160a01b0319166001600160a01b0390911617815590820151600182019061050290826108aa565b506040828101516002830155606083015160038301556080909201516004909101805460ff191691151591909117905580516001600160a01b03881681526020810185905282917f63e3678c8493a16f8ba43ae9e547231762ca04526dac2c388bd2c26d89401851910160405180910390a295945050505050565b5f34116105bc5760405162461bcd60e51b815260206004820152600d60248201526c09aeae6e840e6cadcc8408aa89609b1b604482015260640161028d565b5f818152602081905260409020600481015460ff16156106105760405162461bcd60e51b815260206004820152600f60248201526e10d85b5c185a59db8818db1bdcd959608a1b604482015260640161028d565b34816003015f8282546106239190610965565b90915550505f82815260016020908152604080832033845290915281208054349290610650908490610965565b90915550506040805133815234602082015283917fe555da28bdb778f65d22794d88927ebaeca03f7de9d1b7d39245bc8fb5ca078a910160405180910390a25050565b5f602082840312156106a3575f5ffd5b5035919050565b5f81518084528060208401602086015e5f602082860101526020601f19601f83011685010191505092915050565b6001600160a01b038616815260a0602082018190525f906106fb908301876106aa565b6040830195909552506060810192909252151560809091015292915050565b6001600160a01b038116811461072e575f5ffd5b50565b5f5f5f5f60608587031215610744575f5ffd5b843561074f8161071a565b9350602085013567ffffffffffffffff81111561076a575f5ffd5b8501601f8101871361077a575f5ffd5b803567ffffffffffffffff811115610790575f5ffd5b8760208284010111156107a1575f5ffd5b949760209190910196509394604001359392505050565b5f5f604083850312156107c9575f5ffd5b8235915060208301356107db8161071a565b809150509250929050565b600181811c908216806107fa57607f821691505b60208210810361081857634e487b7160e01b5f52602260045260245ffd5b50919050565b634e487b7160e01b5f52601160045260245ffd5b5f600182016108435761084361081e565b5060010190565b634e487b7160e01b5f52604160045260245ffd5b601f8211156108a557805f5260205f20601f840160051c810160208510156108835750805b601f840160051c820191505b818110156108a2575f815560010161088f565b50505b505050565b815167ffffffffffffffff8111156108c4576108c461084a565b6108d8816108d284546107e6565b8461085e565b6020601f82116001811461090a575f83156108f35750848201515b5f19600385901b1c1916600184901b1784556108a2565b5f84815260208120601f198516915b828110156109395787850151825560209485019460019092019101610919565b508482101561095657868401515f19600387901b60f8161c191681555b50505050600190811b01905550565b808201808211156109785761097861081e565b9291505056fea264697066735822122005076adb1f9518ffa0d9faff66598254acfabf69139e4f0e7be2b0cf46300e9564736f6c634300081c0033",
  "linkReferences": {},
  "deployedLinkReferences": {},
  "immutableReferences": {},
  "inputSourceName": "project/contracts/DonationPlatform.sol",
  "buildInfoId": "solc-0_8_28-e1c6101d31d0324d52fa2409420233b434272ff5"
}