{
  "_format": "hh3-artifact-1",
  "contractName": "SecondhandMarket",
  "sourceName": "contracts/DonationPlatform.sol",
  "abi": [
    {
      "inputs": [],
      "stateMutability": "nonpayable",
      "type": "constructor"
    },
    {
      "anonymous": false,
      "inputs": [
        {
          "indexed": true,
          "internalType": "address",
          "name": "charity",
          "type": "address"
        },
        {
          "indexed": false,
          "internalType": "bool",
          "name": "status",
          "type": "bool"
        }
      ],
      "name": "CharityVerified",
      "type": "event"
    },
    {
      "anonymous": false,
      "inputs": [
        {
          "indexed": true,
          "internalType": "uint256",
          "name": "orderId",
          "type": "uint256"
        },
        {
          "indexed": true,
          "internalType": "address",
          "name": "buyer",
          "type": "address"
        }
      ],
      "name": "DeliveryConfirmed",
      "type": "event"
    },
    {
      "anonymous": false,
      "inputs": [
        {
          "indexed": true,
          "internalType": "uint256",
          "name": "orderId",
          "type": "uint256"
        },
        {
          "indexed": true,
          "internalType": "address",
          "name": "buyer",
          "type": "address"
        },
        {
          "indexed": false,
          "internalType": "string",
          "name": "reason",
          "type": "string"
        }
      ],
      "name": "DisputeOpened",
      "type": "event"
    },
    {
      "anonymous": false,
      "inputs": [
        {
          "indexed": true,
          "internalType": "uint256",
          "name": "orderId",
          "type": "uint256"
        },
        {
          "indexed": false,
          "internalType": "bool",
          "name": "refunded",
          "type": "bool"
        }
      ],
      "name": "DisputeResolved",
      "type": "event"
    },
    {
      "anonymous": false,
      "inputs": [
        {
          "indexed": true,
          "internalType": "uint256",
          "name": "orderId",
          "type": "uint256"
        },
        {
          "indexed": true,
          "internalType": "address",
          "name": "charity",
          "type": "address"
        },
        {
          "indexed": false,
          "internalType": "uint256",
          "name": "amount",
          "type": "uint256"
        }
      ],
      "name": "FundsReleasedToCharity",
      "type": "event"
    },
    {
      "anonymous": false,
      "inputs": [
        {
          "indexed": true,
          "internalType": "uint256",
          "name": "orderId",
          "type": "uint256"
        },
        {
          "indexed": true,
          "internalType": "uint256",
          "name": "listingId",
          "type": "uint256"
        },
        {
          "indexed": true,
          "internalType": "address",
          "name": "buyer",
          "type": "address"
        }
      ],
      "name": "ItemPurchased",
      "type": "event"
    },
    {
      "anonymous": false,
      "inputs": [
        {
          "indexed": true,
          "internalType": "uint256",
          "name": "orderId",
          "type": "uint256"
        },
        {
          "indexed": true,
          "internalType": "address",
          "name": "seller",
          "type": "address"
        }
      ],
      "name": "ItemShipped",
      "type": "event"
    },
    {
      "anonymous": false,
      "inputs": [
        {
          "indexed": true,
          "internalType": "uint256",
          "name": "listingId",
          "type": "uint256"
        }
      ],
      "name": "ListingCancelled",
      "type": "event"
    },
    {
      "anonymous": false,
      "inputs": [
        {
          "indexed": true,
          "internalType": "uint256",
          "name": "listingId",
          "type": "uint256"
        },
        {
          "indexed": true,
          "internalType": "address",
          "name": "seller",
          "type": "address"
        },
        {
          "indexed": false,
          "internalType": "uint256",
          "name": "price",
          "type": "uint256"
        }
      ],
      "name": "ListingCreated",
      "type": "event"
    },
    {
      "anonymous": false,
      "inputs": [
        {
          "indexed": true,
          "internalType": "uint256",
          "name": "orderId",
          "type": "uint256"
        },
        {
          "indexed": true,
          "internalType": "address",
          "name": "buyer",
          "type": "address"
        },
        {
          "indexed": false,
          "internalType": "uint256",
          "name": "amount",
          "type": "uint256"
        }
      ],
      "name": "RefundIssued",
      "type": "event"
    },
    {
      "inputs": [],
      "name": "DISPUTE_WINDOW",
      "outputs": [
        {
          "internalType": "uint256",
          "name": "",
          "type": "uint256"
        }
      ],
      "stateMutability": "view",
      "type": "function"
    },
    {
      "inputs": [],
      "name": "admin",
      "outputs": [
        {
          "internalType": "address",
          "name": "",
          "type": "address"
        }
      ],
      "stateMutability": "view",
      "type": "function"
    },
    {
      "inputs": [
        {
          "internalType": "uint256",
          "name": "_listingId",
          "type": "uint256"
        }
      ],
      "name": "cancelListing",
      "outputs": [],
      "stateMutability": "nonpayable",
      "type": "function"
    },
    {
      "inputs": [
        {
          "internalType": "uint256",
          "name": "_orderId",
          "type": "uint256"
        }
      ],
      "name": "confirmDelivery",
      "outputs": [],
      "stateMutability": "nonpayable",
      "type": "function"
    },
    {
      "inputs": [
        {
          "internalType": "uint256",
          "name": "_orderId",
          "type": "uint256"
        }
      ],
      "name": "confirmShipment",
      "outputs": [],
      "stateMutability": "nonpayable",
      "type": "function"
    },
    {
      "inputs": [
        {
          "internalType": "string",
          "name": "_metadataURI",
          "type": "string"
        },
        {
          "internalType": "uint256",
          "name": "_price",
          "type": "uint256"
        },
        {
          "internalType": "address",
          "name": "_charity",
          "type": "address"
        }
      ],
      "name": "createListing",
      "outputs": [
        {
          "internalType": "uint256",
          "name": "",
          "type": "uint256"
        }
      ],
      "stateMutability": "nonpayable",
      "type": "function"
    },
    {
      "inputs": [
        {
          "internalType": "uint256",
          "name": "_orderId",
          "type": "uint256"
        }
      ],
      "name": "getDisputeReason",
      "outputs": [
        {
          "internalType": "string",
          "name": "",
          "type": "string"
        }
      ],
      "stateMutability": "view",
      "type": "function"
    },
    {
      "inputs": [
        {
          "internalType": "uint256",
          "name": "_listingId",
          "type": "uint256"
        }
      ],
      "name": "getListing",
      "outputs": [
        {
          "internalType": "address",
          "name": "seller",
          "type": "address"
        },
        {
          "internalType": "string",
          "name": "metadataURI",
          "type": "string"
        },
        {
          "internalType": "uint256",
          "name": "price",
          "type": "uint256"
        },
        {
          "internalType": "enum SecondhandMarket.ListingStatus",
          "name": "status",
          "type": "uint8"
        },
        {
          "internalType": "address",
          "name": "charity",
          "type": "address"
        }
      ],
      "stateMutability": "view",
      "type": "function"
    },
    {
      "inputs": [
        {
          "internalType": "uint256",
          "name": "_orderId",
          "type": "uint256"
        }
      ],
      "name": "getOrder",
      "outputs": [
        {
          "internalType": "uint256",
          "name": "listingId",
          "type": "uint256"
        },
        {
          "internalType": "address",
          "name": "buyer",
          "type": "address"
        },
        {
          "internalType": "address",
          "name": "seller",
          "type": "address"
        },
        {
          "internalType": "address",
          "name": "charity",
          "type": "address"
        },
        {
          "internalType": "uint256",
          "name": "amount",
          "type": "uint256"
        },
        {
          "internalType": "enum SecondhandMarket.OrderStatus",
          "name": "status",
          "type": "uint8"
        },
        {
          "internalType": "uint256",
          "name": "shippedAt",
          "type": "uint256"
        },
        {
          "internalType": "uint256",
          "name": "deliveredAt",
          "type": "uint256"
        }
      ],
      "stateMutability": "view",
      "type": "function"
    },
    {
      "inputs": [],
      "name": "listingCount",
      "outputs": [
        {
          "internalType": "uint256",
          "name": "",
          "type": "uint256"
        }
      ],
      "stateMutability": "view",
      "type": "function"
    },
    {
      "inputs": [
        {
          "internalType": "uint256",
          "name": "",
          "type": "uint256"
        }
      ],
      "name": "listings",
      "outputs": [
        {
          "internalType": "uint256",
          "name": "id",
          "type": "uint256"
        },
        {
          "internalType": "address payable",
          "name": "seller",
          "type": "address"
        },
        {
          "internalType": "string",
          "name": "metadataURI",
          "type": "string"
        },
        {
          "internalType": "uint256",
          "name": "price",
          "type": "uint256"
        },
        {
          "internalType": "enum SecondhandMarket.ListingStatus",
          "name": "status",
          "type": "uint8"
        },
        {
          "internalType": "address",
          "name": "charity",
          "type": "address"
        }
      ],
      "stateMutability": "view",
      "type": "function"
    },
    {
      "inputs": [
        {
          "internalType": "uint256",
          "name": "_orderId",
          "type": "uint256"
        },
        {
          "internalType": "string",
          "name": "_reason",
          "type": "string"
        }
      ],
      "name": "openDispute",
      "outputs": [],
      "stateMutability": "nonpayable",
      "type": "function"
    },
    {
      "inputs": [],
      "name": "orderCount",
      "outputs": [
        {
          "internalType": "uint256",
          "name": "",
          "type": "uint256"
        }
      ],
      "stateMutability": "view",
      "type": "function"
    },
    {
      "inputs": [
        {
          "internalType": "uint256",
          "name": "",
          "type": "uint256"
        }
      ],
      "name": "orders",
      "outputs": [
        {
          "internalType": "uint256",
          "name": "id",
          "type": "uint256"
        },
        {
          "internalType": "uint256",
          "name": "listingId",
          "type": "uint256"
        },
        {
          "internalType": "address payable",
          "name": "buyer",
          "type": "address"
        },
        {
          "internalType": "address payable",
          "name": "seller",
          "type": "address"
        },
        {
          "internalType": "address",
          "name": "charity",
          "type": "address"
        },
        {
          "internalType": "uint256",
          "name": "amount",
          "type": "uint256"
        },
        {
          "internalType": "enum SecondhandMarket.OrderStatus",
          "name": "status",
          "type": "uint8"
        },
        {
          "internalType": "uint256",
          "name": "shippedAt",
          "type": "uint256"
        },
        {
          "internalType": "uint256",
          "name": "deliveredAt",
          "type": "uint256"
        },
        {
          "internalType": "string",
          "name": "disputeReason",
          "type": "string"
        }
      ],
      "stateMutability": "view",
      "type": "function"
    },
    {
      "inputs": [
        {
          "internalType": "uint256",
          "name": "_listingId",
          "type": "uint256"
        }
      ],
      "name": "purchaseItem",
      "outputs": [
        {
          "internalType": "uint256",
          "name": "",
          "type": "uint256"
        }
      ],
      "stateMutability": "payable",
      "type": "function"
    },
    {
      "inputs": [
        {
          "internalType": "uint256",
          "name": "_orderId",
          "type": "uint256"
        }
      ],
      "name": "releaseFundsToCharity",
      "outputs": [],
      "stateMutability": "nonpayable",
      "type": "function"
    },
    {
      "inputs": [
        {
          "internalType": "uint256",
          "name": "_orderId",
          "type": "uint256"
        },
        {
          "internalType": "bool",
          "name": "_refundBuyer",
          "type": "bool"
        }
      ],
      "name": "resolveDispute",
      "outputs": [],
      "stateMutability": "nonpayable",
      "type": "function"
    },
    {
      "inputs": [
        {
          "internalType": "address",
          "name": "_newAdmin",
          "type": "address"
        }
      ],
      "name": "transferAdmin",
      "outputs": [],
      "stateMutability": "nonpayable",
      "type": "function"
    },
    {
      "inputs": [
        {
          "internalType": "address",
          "name": "",
          "type": "address"
        }
      ],
      "name": "verifiedCharities",
      "outputs": [
        {
          "internalType": "bool",
          "name": "",
          "type": "bool"
        }
      ],
      "stateMutability": "view",
      "type": "function"
    },
    {
      "inputs": [
        {
          "internalType": "address",
          "name": "_charity",
          "type": "address"
        },
        {
          "internalType": "bool",
          "name": "_status",
          "type": "bool"
        }
      ],
      "name": "verifyCharity",
      "outputs": [],
      "stateMutability": "nonpayable",
      "type": "function"
    }
  ],
  "bytecode": "0x6080604052348015600e575f5ffd5b505f80546001600160a01b03191633179055611db68061002d5f395ff3fe60806040526004361061011b575f3560e01c8063bc93a7221161009d578063e0cb8e5f11610062578063e0cb8e5f146103b6578063f585dc57146103d5578063f851a440146103eb578063f8ca9b2f14610421578063fd84cb9714610440575f5ffd5b8063bc93a722146102ad578063cd775ccd146102cc578063d09ef241146102eb578063d38ea5bf14610372578063de74e57b14610385575f5ffd5b806375829def116100e357806375829def146101da578063801778c7146101f9578063a3c821a714610225578063a85c38ef14610263578063a9b07c2614610298575f5ffd5b8063107a274a1461011f5780632453ffa814610158578063305a67a81461017b57806334b25ee21461019c57806336f691c4146101bb575b5f5ffd5b34801561012a575f5ffd5b5061013e61013936600461174f565b61045f565b60405161014f9594939291906117bc565b60405180910390f35b348015610163575f5ffd5b5061016d60055481565b60405190815260200161014f565b348015610186575f5ffd5b5061019a61019536600461174f565b610546565b005b3480156101a7575f5ffd5b5061019a6101b6366004611823565b610648565b3480156101c6575f5ffd5b5061019a6101d5366004611892565b61091c565b3480156101e5575f5ffd5b5061019a6101f43660046118f0565b610b04565b348015610204575f5ffd5b5061021861021336600461174f565b610b96565b60405161014f9190611910565b348015610230575f5ffd5b5061025361023f3660046118f0565b60036020525f908152604090205460ff1681565b604051901515815260200161014f565b34801561026e575f5ffd5b5061028261027d36600461174f565b610c38565b60405161014f9a99989796959493929190611932565b3480156102a3575f5ffd5b5061016d60045481565b3480156102b8575f5ffd5b5061019a6102c736600461174f565b610d24565b3480156102d7575f5ffd5b5061016d6102e63660046119a4565b610efa565b3480156102f6575f5ffd5b5061035e61030536600461174f565b5f9081526002602081905260409091206001810154918101546003820154600483015460058401546006850154600786015460089096015496976001600160a01b0395861697948616969590931694919360ff90911692565b60405161014f9897969594939291906119fd565b61016d61038036600461174f565b611118565b348015610390575f5ffd5b506103a461039f36600461174f565b6113c5565b60405161014f96959493929190611a4e565b3480156103c1575f5ffd5b5061019a6103d036600461174f565b611497565b3480156103e0575f5ffd5b5061016d6212750081565b3480156103f6575f5ffd5b505f54610409906001600160a01b031681565b6040516001600160a01b03909116815260200161014f565b34801561042c575f5ffd5b5061019a61043b366004611aa8565b6115b2565b34801561044b575f5ffd5b5061019a61045a36600461174f565b611639565b5f8181526001602081905260408220908101546003820154600483015460028401805460609587958695869592946001600160a01b03928316949093919260ff8316926101009004169084906104b490611ad0565b80601f01602080910402602001604051908101604052809291908181526020018280546104e090611ad0565b801561052b5780601f106105025761010080835404028352916020019161052b565b820191905f5260205f20905b81548152906001019060200180831161050e57829003601f168201915b50505050509350955095509550955095505091939590929450565b5f818152600160208190526040909120908101546001600160a01b031633146105af5760405162461bcd60e51b815260206004820152601660248201527513db9b1e481cd95b1b195c8818d85b8818d85b98d95b60521b60448201526064015b60405180910390fd5b5f600482015460ff1660028111156105c9576105c9611794565b1461060b5760405162461bcd60e51b81526020600482015260126024820152714c697374696e67206e6f742061637469766560701b60448201526064016105a6565b60048101805460ff1916600217905560405182907f411aee90354c51b1b04cd563fcab2617142a9d50da19232d888547c8a1b7fd8a905f90a25050565b5f546001600160a01b031633146106715760405162461bcd60e51b81526004016105a690611b08565b5f8281526002602052604090206004600682015460ff16600581111561069957610699611794565b146106db5760405162461bcd60e51b815260206004820152601260248201527113dc99195c881b9bdd08191a5cdc1d5d195960721b60448201526064016105a6565b81156107d95760068101805460ff191660059081179091556002820154908201546040515f926001600160a01b031691908381818185875af1925050503d805f8114610742576040519150601f19603f3d011682016040523d82523d5f602084013e610747565b606091505b50509050806107885760405162461bcd60e51b815260206004820152600d60248201526c1499599d5b990819985a5b1959609a1b60448201526064016105a6565b600282015460058301546040519081526001600160a01b039091169085907f7a482fdeb6bc9a1376f597068a214a7a39472bb2eff1b8cad21ba04f49ddca1b9060200160405180910390a3506108db565b60068101805460ff19166003179055600481015460058201546040515f926001600160a01b031691908381818185875af1925050503d805f8114610838576040519150601f19603f3d011682016040523d82523d5f602084013e61083d565b606091505b505090508061088e5760405162461bcd60e51b815260206004820152601a60248201527f5472616e7366657220746f2063686172697479206661696c656400000000000060448201526064016105a6565b600482015460058301546040519081526001600160a01b039091169085907f939292eb6eec3e15a0a648f02c1f32ec5cdbfa02b5ab413c8044ff0f817fd80a9060200160405180910390a3505b827f5a87909bff68caaaaf0b3fd9c74eeccc928832f879315e5c6fb7a73612f26c0c8360405161090f911515815260200190565b60405180910390a2505050565b5f838152600260208190526040909120015483906001600160a01b031633146109805760405162461bcd60e51b81526020600482015260166024820152754f6e6c792062757965722063616e20646f207468697360501b60448201526064016105a6565b5f8481526002602052604090206001600682015460ff1660058111156109a8576109a8611794565b14806109cc57506002600682015460ff1660058111156109ca576109ca611794565b145b610a185760405162461bcd60e51b815260206004820152601c60248201527f43616e6e6f74206469737075746520617420746869732073746167650000000060448201526064016105a6565b6002600682015460ff166005811115610a3357610a33611794565b03610a9a57621275008160080154610a4b9190611b4c565b421115610a9a5760405162461bcd60e51b815260206004820152601960248201527f446973707574652077696e646f7720686173207061737365640000000000000060448201526064016105a6565b60068101805460ff1916600417905560098101610ab8848683611bc5565b50336001600160a01b0316857f9b58afa035c5fa58f85c5a54b65bd3562d5aa7679e973bc1404fe25e8babab218686604051610af5929190611c7f565b60405180910390a35050505050565b5f546001600160a01b03163314610b2d5760405162461bcd60e51b81526004016105a690611b08565b6001600160a01b038116610b755760405162461bcd60e51b815260206004820152600f60248201526e496e76616c6964206164647265737360881b60448201526064016105a6565b5f80546001600160a01b0319166001600160a01b0392909216919091179055565b5f818152600260205260409020600901805460609190610bb590611ad0565b80601f0160208091040260200160405190810160405280929190818152602001828054610be190611ad0565b8015610c2c5780601f10610c0357610100808354040283529160200191610c2c565b820191905f5260205f20905b815481529060010190602001808311610c0f57829003601f168201915b50505050509050919050565b600260208190525f91825260409091208054600182015492820154600383015460048401546005850154600686015460078701546008880154600989018054989a996001600160a01b03988916999789169890961696949560ff9094169492939192610ca390611ad0565b80601f0160208091040260200160405190810160405280929190818152602001828054610ccf90611ad0565b8015610d1a5780601f10610cf157610100808354040283529160200191610d1a565b820191905f5260205f20905b815481529060010190602001808311610cfd57829003601f168201915b505050505090508a565b5f81815260026020819052604090912090600682015460ff166005811115610d4e57610d4e611794565b14610d945760405162461bcd60e51b815260206004820152601660248201527511195b1a5d995c9e481b9bdd0818dbdb999a5c9b595960521b60448201526064016105a6565b621275008160080154610da79190611b4c565b4211610df55760405162461bcd60e51b815260206004820152601b60248201527f5374696c6c2077697468696e20646973707574652077696e646f77000000000060448201526064016105a6565b60068101805460ff19166003179055600481015460058201546040515f926001600160a01b031691908381818185875af1925050503d805f8114610e54576040519150601f19603f3d011682016040523d82523d5f602084013e610e59565b606091505b5050905080610eaa5760405162461bcd60e51b815260206004820152601a60248201527f5472616e7366657220746f2063686172697479206661696c656400000000000060448201526064016105a6565b600482015460058301546040519081526001600160a01b039091169084907f939292eb6eec3e15a0a648f02c1f32ec5cdbfa02b5ab413c8044ff0f817fd80a9060200160405180910390a3505050565b5f5f8311610f4a5760405162461bcd60e51b815260206004820152601c60248201527f5072696365206d7573742062652067726561746572207468616e20300000000060448201526064016105a6565b6001600160a01b0382165f9081526003602052604090205460ff16610fa85760405162461bcd60e51b815260206004820152601460248201527310da185c9a5d1e481b9bdd081d995c9a599a595960621b60448201526064016105a6565b600480545f9182610fb883611cad565b9190505590506040518060c00160405280828152602001336001600160a01b0316815260200187878080601f0160208091040260200160405190810160405280939291908181526020018383808284375f9201829052509385525050506020820187905260409091019081526001600160a01b038581166020928301525f8481526001808452604091829020855181559385015190840180546001600160a01b031916919093161790915582015160028201906110759082611cc5565b5060608201516003820155608082015160048201805460ff191660018360028111156110a3576110a3611794565b021790555060a09190910151600490910180546001600160a01b0390921661010002610100600160a81b0319909216919091179055604051848152339082907f9adf89188ff96bbe0e772b6a9345d935a240c2bd656be8db63db0d091e92cb9d9060200160405180910390a395945050505050565b5f81815260016020526040812081600482015460ff16600281111561113f5761113f611794565b146111845760405162461bcd60e51b81526020600482015260156024820152744c697374696e67206e6f7420617661696c61626c6560581b60448201526064016105a6565b806003015434146111d75760405162461bcd60e51b815260206004820152601860248201527f496e636f7272656374207061796d656e7420616d6f756e74000000000000000060448201526064016105a6565b60018101546001600160a01b031633036112335760405162461bcd60e51b815260206004820152601a60248201527f53656c6c65722063616e6e6f7420627579206f776e206974656d00000000000060448201526064016105a6565b60048101805460ff19166001179055600580545f918261125283611cad565b9091555060408051610140810182528281526020808201888152338385019081526001888101546001600160a01b03908116606087019081526004808c015461010090819004841660808a019081523460a08b019081525f60c08c0181815260e08d01829052938c018190528c51808c018e528181526101208d01528d815260029a8b90529b909b208a518155975188870155955197870180549885166001600160a01b0319998a16179055915160038701805491851691891691909117905593519385018054949092169390951692909217909155935160058083019190915591516006820180549697509395919490939260ff199290921691849081111561135e5761135e611794565b021790555060e082015160078201556101008201516008820155610120820151600982019061138d9082611cc5565b5050604051339150859083907f5893bbc031bddbc390b0c4a6c4bf73910dc7aed83f441f568c51c492eaa67c4a905f90a49392505050565b600160208190525f91825260409091208054918101546002820180546001600160a01b0390921692916113f790611ad0565b80601f016020809104026020016040519081016040528092919081815260200182805461142390611ad0565b801561146e5780601f106114455761010080835404028352916020019161146e565b820191905f5260205f20905b81548152906001019060200180831161145157829003601f168201915b50505050600383015460049093015491929160ff8116915061010090046001600160a01b031686565b5f8181526002602052604090206003015481906001600160a01b031633146115015760405162461bcd60e51b815260206004820152601760248201527f4f6e6c792073656c6c65722063616e20646f207468697300000000000000000060448201526064016105a6565b5f82815260026020526040812090600682015460ff16600581111561152857611528611794565b1461156c5760405162461bcd60e51b8152602060048201526014602482015273496e76616c6964206f726465722073746174757360601b60448201526064016105a6565b60068101805460ff19166001179055426007820155604051339084907f355ecc648c0721fb7040f9aa067083a9c45a86590f7e0da21521bdc3d5ff97a0905f90a3505050565b5f546001600160a01b031633146115db5760405162461bcd60e51b81526004016105a690611b08565b6001600160a01b0382165f81815260036020908152604091829020805460ff191685151590811790915591519182527fa19081dd489be2ef5e94e0c1ddf9aa70f002fc1a1f2f4cd97f3e69320a839e03910160405180910390a25050565b5f818152600260208190526040909120015481906001600160a01b0316331461169d5760405162461bcd60e51b81526020600482015260166024820152754f6e6c792062757965722063616e20646f207468697360501b60448201526064016105a6565b5f8281526002602052604090206001600682015460ff1660058111156116c5576116c5611794565b146117095760405162461bcd60e51b8152602060048201526014602482015273125d195b481b9bdd081cda1a5c1c1959081e595d60621b60448201526064016105a6565b60068101805460ff19166002179055426008820155604051339084907f64a783c6150854ae756454311c7625a965c757996ba8cc1a8c6205380f337250905f90a3505050565b5f6020828403121561175f575f5ffd5b5035919050565b5f81518084528060208401602086015e5f602082860101526020601f19601f83011685010191505092915050565b634e487b7160e01b5f52602160045260245ffd5b600381106117b8576117b8611794565b9052565b6001600160a01b038616815260a0602082018190525f906117df90830187611766565b90508460408301526117f460608301856117a8565b6001600160a01b039290921660809190910152949350505050565b8035801515811461181e575f5ffd5b919050565b5f5f60408385031215611834575f5ffd5b823591506118446020840161180f565b90509250929050565b5f5f83601f84011261185d575f5ffd5b50813567ffffffffffffffff811115611874575f5ffd5b60208301915083602082850101111561188b575f5ffd5b9250929050565b5f5f5f604084860312156118a4575f5ffd5b83359250602084013567ffffffffffffffff8111156118c1575f5ffd5b6118cd8682870161184d565b9497909650939450505050565b80356001600160a01b038116811461181e575f5ffd5b5f60208284031215611900575f5ffd5b611909826118da565b9392505050565b602081525f6119096020830184611766565b600681106117b8576117b8611794565b8a8152602081018a90526001600160a01b03898116604083015288811660608301528716608082015260a0810186905261196f60c0820186611922565b8360e0820152826101008201526101406101208201525f611994610140830184611766565b9c9b505050505050505050505050565b5f5f5f5f606085870312156119b7575f5ffd5b843567ffffffffffffffff8111156119cd575f5ffd5b6119d98782880161184d565b909550935050602085013591506119f2604086016118da565b905092959194509250565b8881526001600160a01b038881166020830152878116604083015286166060820152608081018590526101008101611a3860a0830186611922565b60c082019390935260e001529695505050505050565b8681526001600160a01b038616602082015260c0604082018190525f90611a7790830187611766565b9050846060830152611a8c60808301856117a8565b6001600160a01b039290921660a0919091015295945050505050565b5f5f60408385031215611ab9575f5ffd5b611ac2836118da565b91506118446020840161180f565b600181811c90821680611ae457607f821691505b602082108103611b0257634e487b7160e01b5f52602260045260245ffd5b50919050565b6020808252601690820152754f6e6c792061646d696e2063616e20646f207468697360501b604082015260600190565b634e487b7160e01b5f52601160045260245ffd5b80820180821115611b5f57611b5f611b38565b92915050565b634e487b7160e01b5f52604160045260245ffd5b601f821115611bc057805f5260205f20601f840160051c81016020851015611b9e5750805b601f840160051c820191505b81811015611bbd575f8155600101611baa565b50505b505050565b67ffffffffffffffff831115611bdd57611bdd611b65565b611bf183611beb8354611ad0565b83611b79565b5f601f841160018114611c22575f8515611c0b5750838201355b5f19600387901b1c1916600186901b178355611bbd565b5f83815260208120601f198716915b82811015611c515786850135825560209485019460019092019101611c31565b5086821015611c6d575f1960f88860031b161c19848701351681555b505060018560011b0183555050505050565b60208152816020820152818360408301375f818301604090810191909152601f909201601f19160101919050565b5f60018201611cbe57611cbe611b38565b5060010190565b815167ffffffffffffffff811115611cdf57611cdf611b65565b611cf381611ced8454611ad0565b84611b79565b6020601f821160018114611d25575f8315611d0e5750848201515b5f19600385901b1c1916600184901b178455611bbd565b5f84815260208120601f198516915b82811015611d545787850151825560209485019460019092019101611d34565b5084821015611d7157868401515f19600387901b60f8161c191681555b50505050600190811b0190555056fea26469706673582212201d793e7fa811439df212f26f049dfa015b07d44f275562d569a9cf6efde0219064736f6c634300081c0033",
  "linkReferences": {},
  "deployedLinkReferences": {},
  "immutableReferences": {},
  "inputSourceName": "project/contracts/DonationPlatform.sol",
  "buildInfoId": "solc-0_8_28-4d56fc02355cabbe71c735d82ecca830d98368ee"
}