{
  "_format": "hh3-artifact-1",
  "contractName": "SecondhandMarket",
  "sourceName": "contracts/DonationPlatform.sol",
  "abi": [
    {
      "inputs": [],
      "stateMutability": "nonpayable",
      "type": "constructor"
    },
    {
      "anonymous": false,
      "inputs": [
        {
          "indexed": true,
          "internalType": "uint256",
          "name": "charityId",
          "type": "uint256"
        },
        {
          "indexed": true,
          "internalType": "address",
          "name": "charityAddress",
          "type": "address"
        },
        {
          "indexed": false,
          "internalType": "string",
          "name": "metadataURI",
          "type": "string"
        }
      ],
      "name": "CharityAdded",
      "type": "event"
    },
    {
      "anonymous": false,
      "inputs": [
        {
          "indexed": true,
          "internalType": "uint256",
          "name": "charityId",
          "type": "uint256"
        },
        {
          "indexed": true,
          "internalType": "address",
          "name": "charityAddress",
          "type": "address"
        },
        {
          "indexed": false,
          "internalType": "bool",
          "name": "isVerified",
          "type": "bool"
        }
      ],
      "name": "CharityUpdated",
      "type": "event"
    },
    {
      "anonymous": false,
      "inputs": [
        {
          "indexed": true,
          "internalType": "uint256",
          "name": "orderId",
          "type": "uint256"
        },
        {
          "indexed": true,
          "internalType": "address",
          "name": "buyer",
          "type": "address"
        }
      ],
      "name": "DeliveryConfirmed",
      "type": "event"
    },
    {
      "anonymous": false,
      "inputs": [
        {
          "indexed": true,
          "internalType": "uint256",
          "name": "orderId",
          "type": "uint256"
        },
        {
          "indexed": true,
          "internalType": "address",
          "name": "buyer",
          "type": "address"
        },
        {
          "indexed": false,
          "internalType": "string",
          "name": "reason",
          "type": "string"
        }
      ],
      "name": "DisputeOpened",
      "type": "event"
    },
    {
      "anonymous": false,
      "inputs": [
        {
          "indexed": true,
          "internalType": "uint256",
          "name": "orderId",
          "type": "uint256"
        },
        {
          "indexed": false,
          "internalType": "bool",
          "name": "refunded",
          "type": "bool"
        }
      ],
      "name": "DisputeResolved",
      "type": "event"
    },
    {
      "anonymous": false,
      "inputs": [
        {
          "indexed": true,
          "internalType": "uint256",
          "name": "orderId",
          "type": "uint256"
        },
        {
          "indexed": true,
          "internalType": "address",
          "name": "charity",
          "type": "address"
        },
        {
          "indexed": false,
          "internalType": "uint256",
          "name": "amount",
          "type": "uint256"
        }
      ],
      "name": "FundsReleasedToCharity",
      "type": "event"
    },
    {
      "anonymous": false,
      "inputs": [
        {
          "indexed": true,
          "internalType": "uint256",
          "name": "goalId",
          "type": "uint256"
        },
        {
          "indexed": true,
          "internalType": "address",
          "name": "charity",
          "type": "address"
        },
        {
          "indexed": false,
          "internalType": "uint256",
          "name": "targetAmount",
          "type": "uint256"
        }
      ],
      "name": "GoalCreated",
      "type": "event"
    },
    {
      "anonymous": false,
      "inputs": [
        {
          "indexed": true,
          "internalType": "uint256",
          "name": "goalId",
          "type": "uint256"
        },
        {
          "indexed": false,
          "internalType": "uint256",
          "name": "currentAmount",
          "type": "uint256"
        },
        {
          "indexed": false,
          "internalType": "enum SecondhandMarket.GoalStatus",
          "name": "status",
          "type": "uint8"
        }
      ],
      "name": "GoalUpdated",
      "type": "event"
    },
    {
      "anonymous": false,
      "inputs": [
        {
          "indexed": true,
          "internalType": "uint256",
          "name": "listingId",
          "type": "uint256"
        },
        {
          "indexed": true,
          "internalType": "address",
          "name": "seller",
          "type": "address"
        },
        {
          "indexed": true,
          "internalType": "address",
          "name": "charity",
          "type": "address"
        }
      ],
      "name": "ItemDonatedToCharity",
      "type": "event"
    },
    {
      "anonymous": false,
      "inputs": [
        {
          "indexed": true,
          "internalType": "uint256",
          "name": "orderId",
          "type": "uint256"
        },
        {
          "indexed": true,
          "internalType": "uint256",
          "name": "listingId",
          "type": "uint256"
        },
        {
          "indexed": true,
          "internalType": "address",
          "name": "buyer",
          "type": "address"
        }
      ],
      "name": "ItemPurchased",
      "type": "event"
    },
    {
      "anonymous": false,
      "inputs": [
        {
          "indexed": true,
          "internalType": "uint256",
          "name": "requestId",
          "type": "uint256"
        },
        {
          "indexed": true,
          "internalType": "address",
          "name": "charity",
          "type": "address"
        },
        {
          "indexed": false,
          "internalType": "enum SecondhandMarket.Category",
          "name": "category",
          "type": "uint8"
        }
      ],
      "name": "ItemRequestCreated",
      "type": "event"
    },
    {
      "anonymous": false,
      "inputs": [
        {
          "indexed": true,
          "internalType": "uint256",
          "name": "requestId",
          "type": "uint256"
        },
        {
          "indexed": true,
          "internalType": "address",
          "name": "donor",
          "type": "address"
        },
        {
          "indexed": false,
          "internalType": "uint256",
          "name": "listingId",
          "type": "uint256"
        }
      ],
      "name": "ItemRequestFulfilled",
      "type": "event"
    },
    {
      "anonymous": false,
      "inputs": [
        {
          "indexed": true,
          "internalType": "uint256",
          "name": "requestId",
          "type": "uint256"
        },
        {
          "indexed": false,
          "internalType": "enum SecondhandMarket.ItemRequestStatus",
          "name": "status",
          "type": "uint8"
        }
      ],
      "name": "ItemRequestStatusChanged",
      "type": "event"
    },
    {
      "anonymous": false,
      "inputs": [
        {
          "indexed": true,
          "internalType": "uint256",
          "name": "orderId",
          "type": "uint256"
        },
        {
          "indexed": true,
          "internalType": "address",
          "name": "seller",
          "type": "address"
        }
      ],
      "name": "ItemShipped",
      "type": "event"
    },
    {
      "anonymous": false,
      "inputs": [
        {
          "indexed": true,
          "internalType": "uint256",
          "name": "listingId",
          "type": "uint256"
        }
      ],
      "name": "ListingCancelled",
      "type": "event"
    },
    {
      "anonymous": false,
      "inputs": [
        {
          "indexed": true,
          "internalType": "uint256",
          "name": "listingId",
          "type": "uint256"
        },
        {
          "indexed": true,
          "internalType": "address",
          "name": "seller",
          "type": "address"
        },
        {
          "indexed": false,
          "internalType": "uint256",
          "name": "price",
          "type": "uint256"
        },
        {
          "indexed": false,
          "internalType": "enum SecondhandMarket.Category",
          "name": "category",
          "type": "uint8"
        }
      ],
      "name": "ListingCreated",
      "type": "event"
    },
    {
      "anonymous": false,
      "inputs": [
        {
          "indexed": true,
          "internalType": "uint256",
          "name": "orderId",
          "type": "uint256"
        },
        {
          "indexed": true,
          "internalType": "address",
          "name": "buyer",
          "type": "address"
        },
        {
          "indexed": false,
          "internalType": "uint256",
          "name": "amount",
          "type": "uint256"
        }
      ],
      "name": "RefundIssued",
      "type": "event"
    },
    {
      "inputs": [],
      "name": "DISPUTE_WINDOW",
      "outputs": [
        {
          "internalType": "uint256",
          "name": "",
          "type": "uint256"
        }
      ],
      "stateMutability": "view",
      "type": "function"
    },
    {
      "inputs": [
        {
          "internalType": "address",
          "name": "_charityAddress",
          "type": "address"
        },
        {
          "internalType": "string",
          "name": "_metadataURI",
          "type": "string"
        }
      ],
      "name": "addCharity",
      "outputs": [
        {
          "internalType": "uint256",
          "name": "",
          "type": "uint256"
        }
      ],
      "stateMutability": "nonpayable",
      "type": "function"
    },
    {
      "inputs": [],
      "name": "admin",
      "outputs": [
        {
          "internalType": "address",
          "name": "",
          "type": "address"
        }
      ],
      "stateMutability": "view",
      "type": "function"
    },
    {
      "inputs": [
        {
          "internalType": "address",
          "name": "",
          "type": "address"
        },
        {
          "internalType": "uint256",
          "name": "",
          "type": "uint256"
        }
      ],
      "name": "buyerOrders",
      "outputs": [
        {
          "internalType": "uint256",
          "name": "",
          "type": "uint256"
        }
      ],
      "stateMutability": "view",
      "type": "function"
    },
    {
      "inputs": [
        {
          "internalType": "uint256",
          "name": "_goalId",
          "type": "uint256"
        }
      ],
      "name": "cancelGoal",
      "outputs": [],
      "stateMutability": "nonpayable",
      "type": "function"
    },
    {
      "inputs": [
        {
          "internalType": "uint256",
          "name": "_requestId",
          "type": "uint256"
        }
      ],
      "name": "cancelItemRequest",
      "outputs": [],
      "stateMutability": "nonpayable",
      "type": "function"
    },
    {
      "inputs": [
        {
          "internalType": "uint256",
          "name": "_listingId",
          "type": "uint256"
        }
      ],
      "name": "cancelListing",
      "outputs": [],
      "stateMutability": "nonpayable",
      "type": "function"
    },
    {
      "inputs": [
        {
          "internalType": "uint256",
          "name": "",
          "type": "uint256"
        }
      ],
      "name": "charities",
      "outputs": [
        {
          "internalType": "address",
          "name": "charityAddress",
          "type": "address"
        },
        {
          "internalType": "string",
          "name": "metadataURI",
          "type": "string"
        },
        {
          "internalType": "bool",
          "name": "isVerified",
          "type": "bool"
        },
        {
          "internalType": "uint256",
          "name": "totalReceived",
          "type": "uint256"
        }
      ],
      "stateMutability": "view",
      "type": "function"
    },
    {
      "inputs": [
        {
          "internalType": "address",
          "name": "",
          "type": "address"
        },
        {
          "internalType": "uint256",
          "name": "",
          "type": "uint256"
        }
      ],
      "name": "charityGoals",
      "outputs": [
        {
          "internalType": "uint256",
          "name": "",
          "type": "uint256"
        }
      ],
      "stateMutability": "view",
      "type": "function"
    },
    {
      "inputs": [
        {
          "internalType": "address",
          "name": "",
          "type": "address"
        }
      ],
      "name": "charityIndex",
      "outputs": [
        {
          "internalType": "uint256",
          "name": "",
          "type": "uint256"
        }
      ],
      "stateMutability": "view",
      "type": "function"
    },
    {
      "inputs": [
        {
          "internalType": "address",
          "name": "",
          "type": "address"
        },
        {
          "internalType": "uint256",
          "name": "",
          "type": "uint256"
        }
      ],
      "name": "charityItemRequests",
      "outputs": [
        {
          "internalType": "uint256",
          "name": "",
          "type": "uint256"
        }
      ],
      "stateMutability": "view",
      "type": "function"
    },
    {
      "inputs": [
        {
          "internalType": "uint256",
          "name": "_orderId",
          "type": "uint256"
        }
      ],
      "name": "confirmDelivery",
      "outputs": [],
      "stateMutability": "nonpayable",
      "type": "function"
    },
    {
      "inputs": [
        {
          "internalType": "uint256",
          "name": "_orderId",
          "type": "uint256"
        }
      ],
      "name": "confirmShipment",
      "outputs": [],
      "stateMutability": "nonpayable",
      "type": "function"
    },
    {
      "inputs": [
        {
          "internalType": "string",
          "name": "_metadataURI",
          "type": "string"
        },
        {
          "internalType": "uint256",
          "name": "_targetAmount",
          "type": "uint256"
        },
        {
          "internalType": "uint256",
          "name": "_deadline",
          "type": "uint256"
        }
      ],
      "name": "createGoal",
      "outputs": [
        {
          "internalType": "uint256",
          "name": "",
          "type": "uint256"
        }
      ],
      "stateMutability": "nonpayable",
      "type": "function"
    },
    {
      "inputs": [
        {
          "internalType": "string",
          "name": "_metadataURI",
          "type": "string"
        },
        {
          "internalType": "enum SecondhandMarket.Category",
          "name": "_category",
          "type": "uint8"
        }
      ],
      "name": "createItemRequest",
      "outputs": [
        {
          "internalType": "uint256",
          "name": "",
          "type": "uint256"
        }
      ],
      "stateMutability": "nonpayable",
      "type": "function"
    },
    {
      "inputs": [
        {
          "internalType": "string",
          "name": "_metadataURI",
          "type": "string"
        },
        {
          "internalType": "uint256",
          "name": "_price",
          "type": "uint256"
        },
        {
          "internalType": "enum SecondhandMarket.Category",
          "name": "_category",
          "type": "uint8"
        },
        {
          "internalType": "address",
          "name": "_charity",
          "type": "address"
        }
      ],
      "name": "createListing",
      "outputs": [
        {
          "internalType": "uint256",
          "name": "",
          "type": "uint256"
        }
      ],
      "stateMutability": "nonpayable",
      "type": "function"
    },
    {
      "inputs": [
        {
          "internalType": "string",
          "name": "_metadataURI",
          "type": "string"
        },
        {
          "internalType": "uint256",
          "name": "_requestId",
          "type": "uint256"
        }
      ],
      "name": "donateItemForRequest",
      "outputs": [
        {
          "internalType": "uint256",
          "name": "",
          "type": "uint256"
        }
      ],
      "stateMutability": "nonpayable",
      "type": "function"
    },
    {
      "inputs": [
        {
          "internalType": "string",
          "name": "_metadataURI",
          "type": "string"
        },
        {
          "internalType": "enum SecondhandMarket.Category",
          "name": "_category",
          "type": "uint8"
        },
        {
          "internalType": "address",
          "name": "_charity",
          "type": "address"
        }
      ],
      "name": "donateItemToCharity",
      "outputs": [
        {
          "internalType": "uint256",
          "name": "",
          "type": "uint256"
        }
      ],
      "stateMutability": "nonpayable",
      "type": "function"
    },
    {
      "inputs": [],
      "name": "getAllCharities",
      "outputs": [
        {
          "components": [
            {
              "internalType": "address",
              "name": "charityAddress",
              "type": "address"
            },
            {
              "internalType": "string",
              "name": "metadataURI",
              "type": "string"
            },
            {
              "internalType": "bool",
              "name": "isVerified",
              "type": "bool"
            },
            {
              "internalType": "uint256",
              "name": "totalReceived",
              "type": "uint256"
            }
          ],
          "internalType": "struct SecondhandMarket.Charity[]",
          "name": "",
          "type": "tuple[]"
        }
      ],
      "stateMutability": "view",
      "type": "function"
    },
    {
      "inputs": [],
      "name": "getAllGoals",
      "outputs": [
        {
          "components": [
            {
              "internalType": "uint256",
              "name": "id",
              "type": "uint256"
            },
            {
              "internalType": "address",
              "name": "charity",
              "type": "address"
            },
            {
              "internalType": "string",
              "name": "metadataURI",
              "type": "string"
            },
            {
              "internalType": "uint256",
              "name": "targetAmount",
              "type": "uint256"
            },
            {
              "internalType": "uint256",
              "name": "currentAmount",
              "type": "uint256"
            },
            {
              "internalType": "enum SecondhandMarket.GoalStatus",
              "name": "status",
              "type": "uint8"
            },
            {
              "internalType": "uint256",
              "name": "deadline",
              "type": "uint256"
            }
          ],
          "internalType": "struct SecondhandMarket.Goal[]",
          "name": "",
          "type": "tuple[]"
        }
      ],
      "stateMutability": "view",
      "type": "function"
    },
    {
      "inputs": [],
      "name": "getAllItemRequests",
      "outputs": [
        {
          "components": [
            {
              "internalType": "uint256",
              "name": "id",
              "type": "uint256"
            },
            {
              "internalType": "address",
              "name": "charity",
              "type": "address"
            },
            {
              "internalType": "string",
              "name": "metadataURI",
              "type": "string"
            },
            {
              "internalType": "enum SecondhandMarket.Category",
              "name": "category",
              "type": "uint8"
            },
            {
              "internalType": "enum SecondhandMarket.ItemRequestStatus",
              "name": "status",
              "type": "uint8"
            },
            {
              "internalType": "uint256",
              "name": "fulfilledCount",
              "type": "uint256"
            }
          ],
          "internalType": "struct SecondhandMarket.ItemRequest[]",
          "name": "",
          "type": "tuple[]"
        }
      ],
      "stateMutability": "view",
      "type": "function"
    },
    {
      "inputs": [
        {
          "internalType": "address",
          "name": "_buyer",
          "type": "address"
        }
      ],
      "name": "getBuyerOrders",
      "outputs": [
        {
          "internalType": "uint256[]",
          "name": "",
          "type": "uint256[]"
        }
      ],
      "stateMutability": "view",
      "type": "function"
    },
    {
      "inputs": [
        {
          "internalType": "enum SecondhandMarket.Category",
          "name": "_category",
          "type": "uint8"
        }
      ],
      "name": "getCategoryName",
      "outputs": [
        {
          "internalType": "string",
          "name": "",
          "type": "string"
        }
      ],
      "stateMutability": "pure",
      "type": "function"
    },
    {
      "inputs": [
        {
          "internalType": "uint256",
          "name": "_charityId",
          "type": "uint256"
        }
      ],
      "name": "getCharity",
      "outputs": [
        {
          "internalType": "address",
          "name": "charityAddress",
          "type": "address"
        },
        {
          "internalType": "string",
          "name": "metadataURI",
          "type": "string"
        },
        {
          "internalType": "bool",
          "name": "isVerified",
          "type": "bool"
        },
        {
          "internalType": "uint256",
          "name": "totalReceived",
          "type": "uint256"
        }
      ],
      "stateMutability": "view",
      "type": "function"
    },
    {
      "inputs": [],
      "name": "getCharityCount",
      "outputs": [
        {
          "internalType": "uint256",
          "name": "",
          "type": "uint256"
        }
      ],
      "stateMutability": "view",
      "type": "function"
    },
    {
      "inputs": [
        {
          "internalType": "address",
          "name": "_charity",
          "type": "address"
        }
      ],
      "name": "getCharityGoals",
      "outputs": [
        {
          "internalType": "uint256[]",
          "name": "",
          "type": "uint256[]"
        }
      ],
      "stateMutability": "view",
      "type": "function"
    },
    {
      "inputs": [
        {
          "internalType": "address",
          "name": "_charity",
          "type": "address"
        }
      ],
      "name": "getCharityItemRequests",
      "outputs": [
        {
          "internalType": "uint256[]",
          "name": "",
          "type": "uint256[]"
        }
      ],
      "stateMutability": "view",
      "type": "function"
    },
    {
      "inputs": [
        {
          "internalType": "uint256",
          "name": "_orderId",
          "type": "uint256"
        }
      ],
      "name": "getDisputeReason",
      "outputs": [
        {
          "internalType": "string",
          "name": "",
          "type": "string"
        }
      ],
      "stateMutability": "view",
      "type": "function"
    },
    {
      "inputs": [
        {
          "internalType": "uint256",
          "name": "_goalId",
          "type": "uint256"
        }
      ],
      "name": "getGoal",
      "outputs": [
        {
          "internalType": "address",
          "name": "charity",
          "type": "address"
        },
        {
          "internalType": "string",
          "name": "metadataURI",
          "type": "string"
        },
        {
          "internalType": "uint256",
          "name": "targetAmount",
          "type": "uint256"
        },
        {
          "internalType": "uint256",
          "name": "currentAmount",
          "type": "uint256"
        },
        {
          "internalType": "enum SecondhandMarket.GoalStatus",
          "name": "status",
          "type": "uint8"
        },
        {
          "internalType": "uint256",
          "name": "deadline",
          "type": "uint256"
        }
      ],
      "stateMutability": "view",
      "type": "function"
    },
    {
      "inputs": [],
      "name": "getGoalCount",
      "outputs": [
        {
          "internalType": "uint256",
          "name": "",
          "type": "uint256"
        }
      ],
      "stateMutability": "view",
      "type": "function"
    },
    {
      "inputs": [
        {
          "internalType": "uint256",
          "name": "_requestId",
          "type": "uint256"
        }
      ],
      "name": "getItemRequest",
      "outputs": [
        {
          "internalType": "address",
          "name": "charity",
          "type": "address"
        },
        {
          "internalType": "string",
          "name": "metadataURI",
          "type": "string"
        },
        {
          "internalType": "enum SecondhandMarket.Category",
          "name": "category",
          "type": "uint8"
        },
        {
          "internalType": "enum SecondhandMarket.ItemRequestStatus",
          "name": "status",
          "type": "uint8"
        },
        {
          "internalType": "uint256",
          "name": "fulfilledCount",
          "type": "uint256"
        }
      ],
      "stateMutability": "view",
      "type": "function"
    },
    {
      "inputs": [],
      "name": "getItemRequestCount",
      "outputs": [
        {
          "internalType": "uint256",
          "name": "",
          "type": "uint256"
        }
      ],
      "stateMutability": "view",
      "type": "function"
    },
    {
      "inputs": [
        {
          "internalType": "uint256",
          "name": "_listingId",
          "type": "uint256"
        }
      ],
      "name": "getListing",
      "outputs": [
        {
          "internalType": "address",
          "name": "seller",
          "type": "address"
        },
        {
          "internalType": "string",
          "name": "metadataURI",
          "type": "string"
        },
        {
          "internalType": "uint256",
          "name": "price",
          "type": "uint256"
        },
        {
          "internalType": "enum SecondhandMarket.Category",
          "name": "category",
          "type": "uint8"
        },
        {
          "internalType": "enum SecondhandMarket.ListingStatus",
          "name": "status",
          "type": "uint8"
        },
        {
          "internalType": "address",
          "name": "charity",
          "type": "address"
        }
      ],
      "stateMutability": "view",
      "type": "function"
    },
    {
      "inputs": [
        {
          "internalType": "uint256",
          "name": "_orderId",
          "type": "uint256"
        }
      ],
      "name": "getOrder",
      "outputs": [
        {
          "internalType": "uint256",
          "name": "listingId",
          "type": "uint256"
        },
        {
          "internalType": "address",
          "name": "buyer",
          "type": "address"
        },
        {
          "internalType": "address",
          "name": "seller",
          "type": "address"
        },
        {
          "internalType": "address",
          "name": "charity",
          "type": "address"
        },
        {
          "internalType": "uint256",
          "name": "amount",
          "type": "uint256"
        },
        {
          "internalType": "enum SecondhandMarket.OrderStatus",
          "name": "status",
          "type": "uint8"
        },
        {
          "internalType": "uint256",
          "name": "shippedAt",
          "type": "uint256"
        },
        {
          "internalType": "uint256",
          "name": "deliveredAt",
          "type": "uint256"
        }
      ],
      "stateMutability": "view",
      "type": "function"
    },
    {
      "inputs": [
        {
          "internalType": "address",
          "name": "_seller",
          "type": "address"
        }
      ],
      "name": "getSellerListings",
      "outputs": [
        {
          "internalType": "uint256[]",
          "name": "",
          "type": "uint256[]"
        }
      ],
      "stateMutability": "view",
      "type": "function"
    },
    {
      "inputs": [
        {
          "internalType": "uint256",
          "name": "",
          "type": "uint256"
        }
      ],
      "name": "goals",
      "outputs": [
        {
          "internalType": "uint256",
          "name": "id",
          "type": "uint256"
        },
        {
          "internalType": "address",
          "name": "charity",
          "type": "address"
        },
        {
          "internalType": "string",
          "name": "metadataURI",
          "type": "string"
        },
        {
          "internalType": "uint256",
          "name": "targetAmount",
          "type": "uint256"
        },
        {
          "internalType": "uint256",
          "name": "currentAmount",
          "type": "uint256"
        },
        {
          "internalType": "enum SecondhandMarket.GoalStatus",
          "name": "status",
          "type": "uint8"
        },
        {
          "internalType": "uint256",
          "name": "deadline",
          "type": "uint256"
        }
      ],
      "stateMutability": "view",
      "type": "function"
    },
    {
      "inputs": [
        {
          "internalType": "uint256",
          "name": "",
          "type": "uint256"
        }
      ],
      "name": "itemRequests",
      "outputs": [
        {
          "internalType": "uint256",
          "name": "id",
          "type": "uint256"
        },
        {
          "internalType": "address",
          "name": "charity",
          "type": "address"
        },
        {
          "internalType": "string",
          "name": "metadataURI",
          "type": "string"
        },
        {
          "internalType": "enum SecondhandMarket.Category",
          "name": "category",
          "type": "uint8"
        },
        {
          "internalType": "enum SecondhandMarket.ItemRequestStatus",
          "name": "status",
          "type": "uint8"
        },
        {
          "internalType": "uint256",
          "name": "fulfilledCount",
          "type": "uint256"
        }
      ],
      "stateMutability": "view",
      "type": "function"
    },
    {
      "inputs": [],
      "name": "listingCount",
      "outputs": [
        {
          "internalType": "uint256",
          "name": "",
          "type": "uint256"
        }
      ],
      "stateMutability": "view",
      "type": "function"
    },
    {
      "inputs": [
        {
          "internalType": "uint256",
          "name": "",
          "type": "uint256"
        }
      ],
      "name": "listings",
      "outputs": [
        {
          "internalType": "uint256",
          "name": "id",
          "type": "uint256"
        },
        {
          "internalType": "address payable",
          "name": "seller",
          "type": "address"
        },
        {
          "internalType": "string",
          "name": "metadataURI",
          "type": "string"
        },
        {
          "internalType": "uint256",
          "name": "price",
          "type": "uint256"
        },
        {
          "internalType": "enum SecondhandMarket.Category",
          "name": "category",
          "type": "uint8"
        },
        {
          "internalType": "enum SecondhandMarket.ListingStatus",
          "name": "status",
          "type": "uint8"
        },
        {
          "internalType": "address",
          "name": "charity",
          "type": "address"
        }
      ],
      "stateMutability": "view",
      "type": "function"
    },
    {
      "inputs": [
        {
          "internalType": "uint256",
          "name": "_requestId",
          "type": "uint256"
        }
      ],
      "name": "markItemRequestFulfilled",
      "outputs": [],
      "stateMutability": "nonpayable",
      "type": "function"
    },
    {
      "inputs": [
        {
          "internalType": "uint256",
          "name": "_orderId",
          "type": "uint256"
        },
        {
          "internalType": "string",
          "name": "_reason",
          "type": "string"
        }
      ],
      "name": "openDispute",
      "outputs": [],
      "stateMutability": "nonpayable",
      "type": "function"
    },
    {
      "inputs": [],
      "name": "orderCount",
      "outputs": [
        {
          "internalType": "uint256",
          "name": "",
          "type": "uint256"
        }
      ],
      "stateMutability": "view",
      "type": "function"
    },
    {
      "inputs": [
        {
          "internalType": "uint256",
          "name": "",
          "type": "uint256"
        }
      ],
      "name": "orders",
      "outputs": [
        {
          "internalType": "uint256",
          "name": "id",
          "type": "uint256"
        },
        {
          "internalType": "uint256",
          "name": "listingId",
          "type": "uint256"
        },
        {
          "internalType": "address payable",
          "name": "buyer",
          "type": "address"
        },
        {
          "internalType": "address payable",
          "name": "seller",
          "type": "address"
        },
        {
          "internalType": "address",
          "name": "charity",
          "type": "address"
        },
        {
          "internalType": "uint256",
          "name": "amount",
          "type": "uint256"
        },
        {
          "internalType": "enum SecondhandMarket.OrderStatus",
          "name": "status",
          "type": "uint8"
        },
        {
          "internalType": "uint256",
          "name": "shippedAt",
          "type": "uint256"
        },
        {
          "internalType": "uint256",
          "name": "deliveredAt",
          "type": "uint256"
        },
        {
          "internalType": "string",
          "name": "disputeReason",
          "type": "string"
        }
      ],
      "stateMutability": "view",
      "type": "function"
    },
    {
      "inputs": [
        {
          "internalType": "uint256",
          "name": "_listingId",
          "type": "uint256"
        }
      ],
      "name": "purchaseItem",
      "outputs": [
        {
          "internalType": "uint256",
          "name": "",
          "type": "uint256"
        }
      ],
      "stateMutability": "payable",
      "type": "function"
    },
    {
      "inputs": [
        {
          "internalType": "uint256",
          "name": "_orderId",
          "type": "uint256"
        }
      ],
      "name": "releaseFundsToCharity",
      "outputs": [],
      "stateMutability": "nonpayable",
      "type": "function"
    },
    {
      "inputs": [
        {
          "internalType": "uint256",
          "name": "_orderId",
          "type": "uint256"
        },
        {
          "internalType": "bool",
          "name": "_refundBuyer",
          "type": "bool"
        }
      ],
      "name": "resolveDispute",
      "outputs": [],
      "stateMutability": "nonpayable",
      "type": "function"
    },
    {
      "inputs": [
        {
          "internalType": "address",
          "name": "",
          "type": "address"
        },
        {
          "internalType": "uint256",
          "name": "",
          "type": "uint256"
        }
      ],
      "name": "sellerListings",
      "outputs": [
        {
          "internalType": "uint256",
          "name": "",
          "type": "uint256"
        }
      ],
      "stateMutability": "view",
      "type": "function"
    },
    {
      "inputs": [
        {
          "internalType": "address",
          "name": "_newAdmin",
          "type": "address"
        }
      ],
      "name": "transferAdmin",
      "outputs": [],
      "stateMutability": "nonpayable",
      "type": "function"
    },
    {
      "inputs": [
        {
          "internalType": "address",
          "name": "_charityAddress",
          "type": "address"
        },
        {
          "internalType": "string",
          "name": "_metadataURI",
          "type": "string"
        },
        {
          "internalType": "bool",
          "name": "_isVerified",
          "type": "bool"
        }
      ],
      "name": "updateCharity",
      "outputs": [],
      "stateMutability": "nonpayable",
      "type": "function"
    },
    {
      "inputs": [
        {
          "internalType": "address",
          "name": "",
          "type": "address"
        }
      ],
      "name": "verifiedCharities",
      "outputs": [
        {
          "internalType": "bool",
          "name": "",
          "type": "bool"
        }
      ],
      "stateMutability": "view",
      "type": "function"
    }
  ],
  "bytecode": "0x6080604052348015600e575f5ffd5b505f80546001600160a01b0319163317905561479b8061002d5f395ff3fe608060405260043610610265575f3560e01c80638b3962ae11610142578063d09ef241116100ba578063d09ef2411461075b578063d38ea5bf146107e2578063de74e57b146107f5578063df6ed6cb14610827578063e0cb8e5f14610858578063efd7de5f14610877578063f585dc5714610896578063f80f8ba5146108ac578063f851a440146108cb578063fa20184a14610901578063fb709d2e14610932578063fd67db8114610961578063fd84cb9714610980575f5ffd5b80638b3962ae146105ac5780638cde8b92146105cb578063a3c821a7146105ea578063a45f2ebc14610628578063a85c38ef14610647578063a8d9952f1461067c578063a9b07c26146106a7578063b1afa11d146106bc578063b5bbd279146106db578063bc93a722146106fc578063c75bc9b41461071b578063cfa8f5a71461073c575f5ffd5b80634500cb60116101e05780634500cb601461041a5780635c5f178c146104395780635f42da091461045857806360c4fc6b1461048457806361449ca21461049857806362865c3c146104ca5780637185a44b146104e957806371eca976146104fd57806372f7bec81461051c57806375829def1461053b5780637c63cef41461055a578063801778c71461057957806381f341ed14610598575f5ffd5b8063054564f014610269578063107a274a1461029b578063113d2278146102cc57806314a82a9a146102eb5780631e20e5391461030c5780632453ffa81461032b5780632ae93d9114610340578063305a67a814610370578063315fb5281461039157806334b25ee2146103b057806336f691c4146103cf5780633f9a61e0146103ee575b5f5ffd5b348015610274575f5ffd5b506102886102833660046139c1565b61099f565b6040519081526020015b60405180910390f35b3480156102a6575f5ffd5b506102ba6102b53660046139e9565b6109ca565b60405161029296959493929190613a69565b3480156102d7575f5ffd5b506102886102e6366004613b10565b610ac0565b3480156102f6575f5ffd5b506102ff610d1b565b6040516102929190613b5c565b348015610317575f5ffd5b50610288610326366004613c24565b610e9e565b348015610336575f5ffd5b50610288600d5481565b34801561034b575f5ffd5b5061035f61035a3660046139e9565b611105565b604051610292959493929190613c8c565b34801561037b575f5ffd5b5061038f61038a3660046139e9565b6111fd565b005b34801561039c575f5ffd5b506102886103ab366004613cda565b611301565b3480156103bb575f5ffd5b5061038f6103ca366004613d38565b6114d5565b3480156103da575f5ffd5b5061038f6103e9366004613d62565b6117f2565b3480156103f9575f5ffd5b5061040d610408366004613da9565b6119ad565b6040516102929190613dc2565b348015610425575f5ffd5b506102886104343660046139c1565b611b0b565b348015610444575f5ffd5b5061038f6104533660046139e9565b611b24565b348015610463575f5ffd5b50610477610472366004613dd4565b611c74565b6040516102929190613ded565b34801561048f575f5ffd5b50600b54610288565b3480156104a3575f5ffd5b506104b76104b23660046139e9565b611cdd565b6040516102929796959493929190613e2f565b3480156104d5575f5ffd5b5061038f6104e43660046139e9565b611dc1565b3480156104f4575f5ffd5b50600954610288565b348015610508575f5ffd5b50610288610517366004613e84565b611ec2565b348015610527575f5ffd5b50610288610536366004613ecb565b61215b565b348015610546575f5ffd5b5061038f610555366004613dd4565b612347565b348015610565575f5ffd5b506102886105743660046139c1565b6123b7565b348015610584575f5ffd5b5061040d6105933660046139e9565b6123d0565b3480156105a3575f5ffd5b50600a54610288565b3480156105b7575f5ffd5b5061038f6105c63660046139e9565b612468565b3480156105d6575f5ffd5b5061038f6105e5366004613f00565b612569565b3480156105f5575f5ffd5b50610618610604366004613dd4565b60046020525f908152604090205460ff1681565b6040519015158152602001610292565b348015610633575f5ffd5b50610477610642366004613dd4565b6126fe565b348015610652575f5ffd5b506106666106613660046139e9565b612765565b6040516102929a99989796959493929190613f70565b348015610687575f5ffd5b50610288610696366004613dd4565b60036020525f908152604090205481565b3480156106b2575f5ffd5b50610288600c5481565b3480156106c7575f5ffd5b506102886106d6366004613fe2565b612851565b3480156106e6575f5ffd5b506106ef612a51565b6040516102929190614037565b348015610707575f5ffd5b5061038f6107163660046139e9565b612b6a565b348015610726575f5ffd5b5061072f612d87565b60405161029291906140c6565b348015610747575f5ffd5b506102886107563660046139c1565b612edc565b348015610766575f5ffd5b506107ce6107753660046139e9565b5f9081526002602081905260409091206001810154918101546003820154600483015460058401546006850154600786015460089096015496976001600160a01b0395861697948616969590931694919360ff90911692565b604051610292989796959493929190614175565b6102886107f03660046139e9565b612ef5565b348015610800575f5ffd5b5061081461080f3660046139e9565b6131be565b60405161029297969594939291906141c6565b348015610832575f5ffd5b506108466108413660046139e9565b613299565b60405161029296959493929190614230565b348015610863575f5ffd5b5061038f6108723660046139e9565b613302565b348015610882575f5ffd5b50610477610891366004613dd4565b613417565b3480156108a1575f5ffd5b506102886212750081565b3480156108b7575f5ffd5b506104776108c6366004613dd4565b61347e565b3480156108d6575f5ffd5b505f546108e9906001600160a01b031681565b6040516001600160a01b039091168152602001610292565b34801561090c575f5ffd5b5061092061091b3660046139e9565b6134e5565b6040516102929695949392919061427e565b34801561093d575f5ffd5b5061095161094c3660046139e9565b6135c3565b60405161029294939291906142bf565b34801561096c575f5ffd5b5061095161097b3660046139e9565b613691565b34801561098b575f5ffd5b5061038f61099a3660046139e9565b613779565b6005602052815f5260405f2081815481106109b8575f80fd5b905f5260205f20015f91509150505481565b5f81815260016020819052604082209081015460038201546004830154600284018054606095879586958695869593946001600160a01b03938416949360ff8084169361010081049091169262010000909104909116908590610a2c906142f5565b80601f0160208091040260200160405190810160405280929190818152602001828054610a58906142f5565b8015610aa35780601f10610a7a57610100808354040283529160200191610aa3565b820191905f5260205f20905b815481529060010190602001808311610a8657829003601f168201915b505050505094509650965096509650965096505091939550919395565b335f9081526004602052604081205460ff16610af75760405162461bcd60e51b8152600401610aee9061432d565b60405180910390fd5b5f8311610b465760405162461bcd60e51b815260206004820152601d60248201527f546172676574206d7573742062652067726561746572207468616e20300000006044820152606401610aee565b428211610b925760405162461bcd60e51b815260206004820152601a602482015279446561646c696e65206d75737420626520696e2066757475726560301b6044820152606401610aee565b5f600a805490509050600a6040518060e00160405280838152602001336001600160a01b0316815260200188888080601f0160208091040260200160405190810160405280939291908181526020018383808284375f9201829052509385525050506020820188905260408201819052606090910190815260209081018690528254600180820185555f9485529382902083516007909202019081559082015192810180546001600160a01b0319166001600160a01b039094169390931790925560408101519091906002820190610c6a90826143e2565b50606082015160038201556080820151600482015560a082015160058201805460ff19166001836002811115610ca257610ca2613a2e565b021790555060c09190910151600690910155335f818152600760209081526040808320805460018101825590845291909220018390555182907fb2986a32286583241a4d805815e7d081d6ef705810bc3cbd0c6ac8136d3e0fb090610d0a9088815260200190565b60405180910390a395945050505050565b6060600b805480602002602001604051908101604052809291908181526020015f905b82821015610e95575f8481526020908190206040805160c081018252600586029092018054835260018101546001600160a01b03169383019390935260028301805492939291840191610d90906142f5565b80601f0160208091040260200160405190810160405280929190818152602001828054610dbc906142f5565b8015610e075780601f10610dde57610100808354040283529160200191610e07565b820191905f5260205f20905b815481529060010190602001808311610dea57829003601f168201915b5050509183525050600382015460209091019060ff166004811115610e2e57610e2e613a2e565b6004811115610e3f57610e3f613a2e565b81526020016003820160019054906101000a900460ff166002811115610e6757610e67613a2e565b6002811115610e7857610e78613a2e565b815260200160048201548152505081526020019060010190610d3e565b50505050905090565b5f5f8411610eee5760405162461bcd60e51b815260206004820152601c60248201527f5072696365206d7573742062652067726561746572207468616e2030000000006044820152606401610aee565b6001600160a01b0382165f9081526004602052604090205460ff16610f255760405162461bcd60e51b8152600401610aee90614497565b600c80545f9182610f35836144d9565b9190505590506040518060e00160405280828152602001336001600160a01b0316815260200188888080601f0160208091040260200160405190810160405280939291908181526020018383808284375f9201919091525050509082525060208101879052604001856004811115610faf57610faf613a2e565b81526020015f81526001600160a01b038581166020928301525f8481526001808452604091829020855181559385015190840180546001600160a01b0319169190931617909155820151600282019061100890826143e2565b50606082015181600301556080820151816004015f6101000a81548160ff0219169083600481111561103c5761103c613a2e565b021790555060a082015160048201805461ff00191661010083600281111561106657611066613a2e565b021790555060c09190910151600490910180546001600160a01b03909216620100000262010000600160b01b0319909216919091179055335f818152600560209081526040808320805460018101825590845291909220018390555182907f90778e9c47b56688ff08f75a30f36901b4e8d99432612ef8287cee8a8455bb75906110f390899089906144f1565b60405180910390a39695505050505050565b5f60605f5f5f5f600b878154811061111f5761111f614505565b5f91825260209091206005909102016001810154600382015460048301546002840180549495506001600160a01b039093169360ff808416936101009004169190849061116b906142f5565b80601f0160208091040260200160405190810160405280929190818152602001828054611197906142f5565b80156111e25780601f106111b9576101008083540402835291602001916111e2565b820191905f5260205f20905b8154815290600101906020018083116111c557829003601f168201915b50505050509350955095509550955095505091939590929450565b5f818152600160208190526040909120908101546001600160a01b031633146112615760405162461bcd60e51b815260206004820152601660248201527513db9b1e481cd95b1b195c8818d85b8818d85b98d95b60521b6044820152606401610aee565b5f6004820154610100900460ff16600281111561128057611280613a2e565b146112c25760405162461bcd60e51b81526020600482015260126024820152714c697374696e67206e6f742061637469766560701b6044820152606401610aee565b60048101805461ff00191661020017905560405182907f411aee90354c51b1b04cd563fcab2617142a9d50da19232d888547c8a1b7fd8a905f90a25050565b335f9081526004602052604081205460ff1661132f5760405162461bcd60e51b8152600401610aee9061432d565b5f600b805490509050600b6040518060c00160405280838152602001336001600160a01b0316815260200187878080601f0160208091040260200160405190810160405280939291908181526020018383808284375f920191909152505050908252506020018560048111156113a7576113a7613a2e565b81526020015f81525f60209182018190528354600180820186559482529082902083516005909202019081559082015192810180546001600160a01b0319166001600160a01b03909416939093179092556040810151909190600282019061140f90826143e2565b50606082015160038201805460ff1916600183600481111561143357611433613a2e565b0217905550608082015160038201805461ff00191661010083600281111561145d5761145d613a2e565b021790555060a09190910151600490910155335f818152600860209081526040808320805460018101825590845291909220018390555182907f831cb7cb6e8aa87bf235ac9b7e6faceeee892094b381092ce89626dade8fec1d906114c3908790614519565b60405180910390a390505b9392505050565b5f546001600160a01b031633146114fe5760405162461bcd60e51b8152600401610aee9061452d565b5f8281526002602052604090206004600682015460ff16600581111561152657611526613a2e565b146115685760405162461bcd60e51b815260206004820152601260248201527113dc99195c881b9bdd08191a5cdc1d5d195960721b6044820152606401610aee565b81156116665760068101805460ff191660059081179091556002820154908201546040515f926001600160a01b031691908381818185875af1925050503d805f81146115cf576040519150601f19603f3d011682016040523d82523d5f602084013e6115d4565b606091505b50509050806116155760405162461bcd60e51b815260206004820152600d60248201526c1499599d5b990819985a5b1959609a1b6044820152606401610aee565b600282015460058301546040519081526001600160a01b039091169085907f7a482fdeb6bc9a1376f597068a214a7a39472bb2eff1b8cad21ba04f49ddca1b9060200160405180910390a3506117b1565b60068101805460ff1916600390811790915560048201546001600160a01b03165f9081526020919091526040902054600582015460098054839081106116ae576116ae614505565b905f5260205f2090600402016003015f8282546116cb919061455d565b9091555050600482015460058301546116ed916001600160a01b031690613866565b600482015460058301546040515f926001600160a01b031691908381818185875af1925050503d805f811461173d576040519150601f19603f3d011682016040523d82523d5f602084013e611742565b606091505b50509050806117635760405162461bcd60e51b8152600401610aee90614570565b600483015460058401546040519081526001600160a01b039091169086907f939292eb6eec3e15a0a648f02c1f32ec5cdbfa02b5ab413c8044ff0f817fd80a9060200160405180910390a350505b827f5a87909bff68caaaaf0b3fd9c74eeccc928832f879315e5c6fb7a73612f26c0c836040516117e5911515815260200190565b60405180910390a2505050565b5f838152600260208190526040909120015483906001600160a01b0316331461182d5760405162461bcd60e51b8152600401610aee906145a4565b5f8481526002602052604090206001600682015460ff16600581111561185557611855613a2e565b148061187957506002600682015460ff16600581111561187757611877613a2e565b145b6118c55760405162461bcd60e51b815260206004820152601c60248201527f43616e6e6f7420646973707574652061742074686973207374616765000000006044820152606401610aee565b6002600682015460ff1660058111156118e0576118e0613a2e565b03611943576212750081600801546118f8919061455d565b4211156119435760405162461bcd60e51b8152602060048201526019602482015278111a5cdc1d5d19481dda5b991bddc81a185cc81c185cdcd959603a1b6044820152606401610aee565b60068101805460ff19166004179055600981016119618486836145d4565b50336001600160a01b0316857f9b58afa035c5fa58f85c5a54b65bd3562d5aa7679e973bc1404fe25e8babab21868660405161199e929190614688565b60405180910390a35050505050565b60605f8260048111156119c2576119c2613a2e565b036119eb575050604080518082019091526008815267436c6f7468696e6760c01b602082015290565b60018260048111156119ff576119ff613a2e565b03611a2b57505060408051808201909152600b81526a486f75736520476f6f647360a81b602082015290565b6002826004811115611a3f57611a3f613a2e565b03611a6b57505060408051808201909152600b81526a456c656374726f6e69637360a81b602082015290565b6003826004811115611a7f57611a7f613a2e565b03611aac57505060408051808201909152600c81526b53706f72747320476f6f647360a01b602082015290565b6004826004811115611ac057611ac0613a2e565b03611ae8575050604080518082019091526007815266486f626269657360c81b602082015290565b50506040805180820190915260078152662ab735b737bbb760c91b602082015290565b6006602052815f5260405f2081815481106109b8575f80fd5b335f9081526004602052604090205460ff16611b525760405162461bcd60e51b8152600401610aee9061432d565b5f600a8281548110611b6657611b66614505565b5f91825260209091206001600790920201908101549091506001600160a01b03163314611bc55760405162461bcd60e51b815260206004820152600d60248201526c139bdd081e5bdd5c8819dbd85b609a1b6044820152606401610aee565b5f600582015460ff166002811115611bdf57611bdf613a2e565b14611c1e5760405162461bcd60e51b815260206004820152600f60248201526e476f616c206e6f742061637469766560881b6044820152606401610aee565b60058101805460ff19166002908117909155600482015460405184927f331ae70ec92ba17f5256f6b032eab1c8090b1731e40b94609300dcc66e51fc0d92611c68929091906146b6565b60405180910390a25050565b6001600160a01b0381165f90815260056020908152604091829020805483518184028101840190945280845260609392830182828015611cd157602002820191905f5260205f20905b815481526020019060010190808311611cbd575b50505050509050919050565b600a8181548110611cec575f80fd5b5f9182526020909120600790910201805460018201546002830180549294506001600160a01b039091169291611d21906142f5565b80601f0160208091040260200160405190810160405280929190818152602001828054611d4d906142f5565b8015611d985780601f10611d6f57610100808354040283529160200191611d98565b820191905f5260205f20905b815481529060010190602001808311611d7b57829003601f168201915b5050506003840154600485015460058601546006909601549495919490935060ff909116915087565b335f9081526004602052604090205460ff16611def5760405162461bcd60e51b8152600401610aee9061432d565b5f600b8281548110611e0357611e03614505565b5f91825260209091206001600590920201908101549091506001600160a01b03163314611e425760405162461bcd60e51b8152600401610aee906146d3565b5f6003820154610100900460ff166002811115611e6157611e61613a2e565b14611e7e5760405162461bcd60e51b8152600401610aee906146fd565b60038101805461ff00191661010017905560405182907f637c8bf13d6e77b582e19ba02fcbb9b17d489c44d578c1fa7bfa8880119945a390611c6890600190614729565b5f5f600b8381548110611ed757611ed7614505565b5f9182526020822060059091020191506003820154610100900460ff166002811115611f0557611f05613a2e565b14611f225760405162461bcd60e51b8152600401610aee906146fd565b600c80545f9182611f32836144d9565b9190505590506040518060e00160405280828152602001336001600160a01b0316815260200187878080601f0160208091040260200160405190810160405280939291908181526020018383808284375f9201829052509385525050506020820152600384015460409091019060ff166004811115611fb357611fb3613a2e565b8152602001600181526001848101546001600160a01b039081166020938401525f858152828452604090819020855181559385015192840180546001600160a01b03191693909216929092179055820151600282019061201390826143e2565b50606082015181600301556080820151816004015f6101000a81548160ff0219169083600481111561204757612047613a2e565b021790555060a082015160048201805461ff00191661010083600281111561207157612071613a2e565b021790555060c09190910151600491820180546001600160a01b03909216620100000262010000600160b01b0319909216919091179055335f90815260056020908152604082208054600181018255908352908220018390559083018054916120d9836144d9565b909155505060018201546040516001600160a01b0390911690339083907f868f6c2bb50e719bdbdf81a25b7a08daf0b4e5bd0c818efacf33266701902bbe905f90a4604051818152339085907fce6cdadc54d12b2c585859620ec1e4d2dc9009bacd487f4f4eca225911460ba99060200160405180910390a395945050505050565b5f80546001600160a01b031633146121855760405162461bcd60e51b8152600401610aee9061452d565b6001600160a01b0384166121ab5760405162461bcd60e51b8152600401610aee9061473c565b6001600160a01b0384165f9081526004602052604090205460ff161561220c5760405162461bcd60e51b81526020600482015260166024820152754368617269747920616c72656164792065786973747360501b6044820152606401610aee565b5f600980549050905060096040518060800160405280876001600160a01b0316815260200186868080601f0160208091040260200160405190810160405280939291908181526020018383808284375f92018290525093855250506001602080850182905260409094018390528554808201875595835291839020845160049096020180546001600160a01b0319166001600160a01b039096169590951785555090820151919291908201906122c290826143e2565b5060408281015160028301805491151560ff199283161790556060909301516003928301556001600160a01b0388165f81815260209384528281208690556004909352918190208054909316600117909255905182907fa074b173bff9c06ccb631c68cea9ce4a6d192a1ce8f60ae93fa14a04aa7166c6906114c39088908890614688565b5f546001600160a01b031633146123705760405162461bcd60e51b8152600401610aee9061452d565b6001600160a01b0381166123965760405162461bcd60e51b8152600401610aee9061473c565b5f80546001600160a01b0319166001600160a01b0392909216919091179055565b6007602052815f5260405f2081815481106109b8575f80fd5b5f8181526002602052604090206009018054606091906123ef906142f5565b80601f016020809104026020016040519081016040528092919081815260200182805461241b906142f5565b8015611cd15780601f1061243d57610100808354040283529160200191611cd1565b820191905f5260205f20905b8154815290600101906020018083116124495750939695505050505050565b335f9081526004602052604090205460ff166124965760405162461bcd60e51b8152600401610aee9061432d565b5f600b82815481106124aa576124aa614505565b5f91825260209091206001600590920201908101549091506001600160a01b031633146124e95760405162461bcd60e51b8152600401610aee906146d3565b5f6003820154610100900460ff16600281111561250857612508613a2e565b146125255760405162461bcd60e51b8152600401610aee906146fd565b60038101805461ff00191661020017905560405182907f637c8bf13d6e77b582e19ba02fcbb9b17d489c44d578c1fa7bfa8880119945a390611c6890600290614729565b5f546001600160a01b031633146125925760405162461bcd60e51b8152600401610aee9061452d565b6001600160a01b0384165f908152600360205260409020541515806125ea5750836001600160a01b031660095f815481106125cf576125cf614505565b5f9182526020909120600490910201546001600160a01b0316145b61262a5760405162461bcd60e51b815260206004820152601160248201527010da185c9a5d1e481b9bdd08199bdd5b99607a1b6044820152606401610aee565b6001600160a01b0384165f9081526003602052604090205460098054859185918490811061265a5761265a614505565b905f5260205f20906004020160010191826126769291906145d4565b50816009828154811061268b5761268b614505565b5f91825260208083206002600493840290910101805494151560ff199586161790556001600160a01b038916808452918152604092839020805487151595168517905591519283529183917f3315791b770f9d05444d2affebcfa8b2ceab6041d20f5800141051e17f54efa2910161199e565b6001600160a01b0381165f90815260066020908152604091829020805483518184028101840190945280845260609392830182828015611cd157602002820191905f5260205f2090815481526020019060010190808311611cbd5750505050509050919050565b600260208190525f91825260409091208054600182015492820154600383015460048401546005850154600686015460078701546008880154600989018054989a996001600160a01b03988916999789169890961696949560ff90941694929391926127d0906142f5565b80601f01602080910402602001604051908101604052809291908181526020018280546127fc906142f5565b80156128475780601f1061281e57610100808354040283529160200191612847565b820191905f5260205f20905b81548152906001019060200180831161282a57829003601f168201915b505050505090508a565b6001600160a01b0381165f9081526004602052604081205460ff166128885760405162461bcd60e51b8152600401610aee90614497565b600c80545f9182612898836144d9565b9190505590506040518060e00160405280828152602001336001600160a01b0316815260200187878080601f0160208091040260200160405190810160405280939291908181526020018383808284375f920182905250938552505050602082015260400185600481111561290f5761290f613a2e565b8152602001600181526001600160a01b038581166020928301525f8481526001808452604091829020855181559385015190840180546001600160a01b0319169190931617909155820151600282019061296990826143e2565b50606082015181600301556080820151816004015f6101000a81548160ff0219169083600481111561299d5761299d613a2e565b021790555060a082015160048201805461ff0019166101008360028111156129c7576129c7613a2e565b021790555060c091909101516004909101805462010000600160b01b031916620100006001600160a01b0393841602179055335f8181526005602090815260408083208054600181018255908452918320909101859055519286169284917f868f6c2bb50e719bdbdf81a25b7a08daf0b4e5bd0c818efacf33266701902bbe91a495945050505050565b60606009805480602002602001604051908101604052809291908181526020015f905b82821015610e95575f84815260209081902060408051608081019091526004850290910180546001600160a01b031682526001810180549293919291840191612abc906142f5565b80601f0160208091040260200160405190810160405280929190818152602001828054612ae8906142f5565b8015612b335780601f10612b0a57610100808354040283529160200191612b33565b820191905f5260205f20905b815481529060010190602001808311612b1657829003601f168201915b5050509183525050600282015460ff1615156020808301919091526003909201546040909101529082526001929092019101612a74565b5f81815260026020819052604090912090600682015460ff166005811115612b9457612b94613a2e565b14612bda5760405162461bcd60e51b815260206004820152601660248201527511195b1a5d995c9e481b9bdd0818dbdb999a5c9b595960521b6044820152606401610aee565b621275008160080154612bed919061455d565b4211612c395760405162461bcd60e51b815260206004820152601b60248201527a5374696c6c2077697468696e20646973707574652077696e646f7760281b6044820152606401610aee565b60068101805460ff1916600390811790915560048201546001600160a01b03165f908152602091909152604090205460058201546009805483908110612c8157612c81614505565b905f5260205f2090600402016003015f828254612c9e919061455d565b909155505060048201546005830154612cc0916001600160a01b031690613866565b600482015460058301546040515f926001600160a01b031691908381818185875af1925050503d805f8114612d10576040519150601f19603f3d011682016040523d82523d5f602084013e612d15565b606091505b5050905080612d365760405162461bcd60e51b8152600401610aee90614570565b600483015460058401546040519081526001600160a01b039091169085907f939292eb6eec3e15a0a648f02c1f32ec5cdbfa02b5ab413c8044ff0f817fd80a9060200160405180910390a350505050565b6060600a805480602002602001604051908101604052809291908181526020015f905b82821015610e95575f8481526020908190206040805160e081018252600786029092018054835260018101546001600160a01b03169383019390935260028301805492939291840191612dfc906142f5565b80601f0160208091040260200160405190810160405280929190818152602001828054612e28906142f5565b8015612e735780601f10612e4a57610100808354040283529160200191612e73565b820191905f5260205f20905b815481529060010190602001808311612e5657829003601f168201915b50505091835250506003820154602082015260048201546040820152600582015460609091019060ff166002811115612eae57612eae613a2e565b6002811115612ebf57612ebf613a2e565b815260200160068201548152505081526020019060010190612daa565b6008602052815f5260405f2081815481106109b8575f80fd5b5f818152600160205260408120816004820154610100900460ff166002811115612f2157612f21613a2e565b14612f665760405162461bcd60e51b81526020600482015260156024820152744c697374696e67206e6f7420617661696c61626c6560581b6044820152606401610aee565b80600301543414612fb45760405162461bcd60e51b8152602060048201526018602482015277125b98dbdc9c9958dd081c185e5b595b9d08185b5bdd5b9d60421b6044820152606401610aee565b60018101546001600160a01b0316330361300d5760405162461bcd60e51b815260206004820152601a60248201527953656c6c65722063616e6e6f7420627579206f776e206974656d60301b6044820152606401610aee565b60048101805461ff001916610100179055600d80545f918261302e836144d9565b9091555060408051610140810182528281526020808201888152338385019081526001888101546001600160a01b03908116606087019081526004808c01546201000090048316608089019081523460a08a019081525f60c08b0181815260e08c018290526101008c018290528c51808c018e528281526101208d01528d825260029a8b90529b90208a518155975188870155955197870180546001600160a01b031990811699861699909917905591516003870180548916918516919091179055905190850180549096169116179093555160058083019190915593516006820180549697509395919490939260ff19929092169190849081111561313657613136613a2e565b021790555060e082015160078201556101008201516008820155610120820151600982019061316590826143e2565b5050335f818152600660209081526040808320805460018101825590845291832090910185905551919250869184917f5893bbc031bddbc390b0c4a6c4bf73910dc7aed83f441f568c51c492eaa67c4a91a49392505050565b600160208190525f91825260409091208054918101546002820180546001600160a01b0390921692916131f0906142f5565b80601f016020809104026020016040519081016040528092919081815260200182805461321c906142f5565b80156132675780601f1061323e57610100808354040283529160200191613267565b820191905f5260205f20905b81548152906001019060200180831161324a57829003601f168201915b50505050600383015460049093015491929160ff8082169250610100820416906201000090046001600160a01b031687565b5f60605f5f5f5f5f600a88815481106132b4576132b4614505565b5f9182526020909120600790910201600181015460038201546004830154600584015460068501546002860180549697506001600160a01b039095169560ff909216918590610a2c906142f5565b5f8181526002602052604090206003015481906001600160a01b031633146133665760405162461bcd60e51b81526020600482015260176024820152764f6e6c792073656c6c65722063616e20646f207468697360481b6044820152606401610aee565b5f82815260026020526040812090600682015460ff16600581111561338d5761338d613a2e565b146133d15760405162461bcd60e51b8152602060048201526014602482015273496e76616c6964206f726465722073746174757360601b6044820152606401610aee565b60068101805460ff19166001179055426007820155604051339084907f355ecc648c0721fb7040f9aa067083a9c45a86590f7e0da21521bdc3d5ff97a0905f90a3505050565b6001600160a01b0381165f90815260086020908152604091829020805483518184028101840190945280845260609392830182828015611cd157602002820191905f5260205f2090815481526020019060010190808311611cbd5750505050509050919050565b6001600160a01b0381165f90815260076020908152604091829020805483518184028101840190945280845260609392830182828015611cd157602002820191905f5260205f2090815481526020019060010190808311611cbd5750505050509050919050565b600b81815481106134f4575f80fd5b5f9182526020909120600590910201805460018201546002830180549294506001600160a01b039091169291613529906142f5565b80601f0160208091040260200160405190810160405280929190818152602001828054613555906142f5565b80156135a05780601f10613577576101008083540402835291602001916135a0565b820191905f5260205f20905b81548152906001019060200180831161358357829003601f168201915b505050506003830154600490930154919260ff8082169361010090920416915086565b600981815481106135d2575f80fd5b5f918252602090912060049091020180546001820180546001600160a01b03909216935090613600906142f5565b80601f016020809104026020016040519081016040528092919081815260200182805461362c906142f5565b80156136775780601f1061364e57610100808354040283529160200191613677565b820191905f5260205f20905b81548152906001019060200180831161365a57829003601f168201915b505050506002830154600390930154919260ff1691905084565b5f60605f5f5f600986815481106136aa576136aa614505565b5f91825260209091206004909102018054600282015460038301546001840180549495506001600160a01b039093169360ff9092169183906136eb906142f5565b80601f0160208091040260200160405190810160405280929190818152602001828054613717906142f5565b80156137625780601f1061373957610100808354040283529160200191613762565b820191905f5260205f20905b81548152906001019060200180831161374557829003601f168201915b505050505092509450945094509450509193509193565b5f818152600260208190526040909120015481906001600160a01b031633146137b45760405162461bcd60e51b8152600401610aee906145a4565b5f8281526002602052604090206001600682015460ff1660058111156137dc576137dc613a2e565b146138205760405162461bcd60e51b8152602060048201526014602482015273125d195b481b9bdd081cda1a5c1c1959081e595d60621b6044820152606401610aee565b60068101805460ff19166002179055426008820155604051339084907f64a783c6150854ae756454311c7625a965c757996ba8cc1a8c6205380f337250905f90a3505050565b6001600160a01b0382165f908152600760205260408120905b81548110156139a0575f600a83838154811061389d5761389d614505565b905f5260205f200154815481106138b6576138b6614505565b5f918252602082206007909102019150600582015460ff1660028111156138df576138df613a2e565b1480156138f0575080600601544211155b156139975783816004015f828254613908919061455d565b9091555050600381015460048201541061392c5760058101805460ff191660011790555b82828154811061393e5761393e614505565b5f91825260209091200154600482015460058301546040517f331ae70ec92ba17f5256f6b032eab1c8090b1731e40b94609300dcc66e51fc0d9261398992909160ff909116906146b6565b60405180910390a2506139a0565b5060010161387f565b50505050565b80356001600160a01b03811681146139bc575f5ffd5b919050565b5f5f604083850312156139d2575f5ffd5b6139db836139a6565b946020939093013593505050565b5f602082840312156139f9575f5ffd5b5035919050565b5f81518084528060208401602086015e5f602082860101526020601f19601f83011685010191505092915050565b634e487b7160e01b5f52602160045260245ffd5b60058110613a5257613a52613a2e565b9052565b60038110613a6657613a66613a2e565b50565b6001600160a01b038716815260c0602082018190525f90613a8c90830188613a00565b9050856040830152613aa16060830186613a42565b613aaa84613a56565b60808201939093526001600160a01b039190911660a090910152949350505050565b5f5f83601f840112613adc575f5ffd5b5081356001600160401b03811115613af2575f5ffd5b602083019150836020828501011115613b09575f5ffd5b9250929050565b5f5f5f5f60608587031215613b23575f5ffd5b84356001600160401b03811115613b38575f5ffd5b613b4487828801613acc565b90989097506020870135966040013595509350505050565b5f602082016020835280845180835260408501915060408160051b8601019250602086015f5b82811015613c0a57603f1987860301845281518051865260018060a01b036020820151166020870152604081015160c06040880152613bc460c0880182613a00565b90506060820151613bd86060890182613a42565b506080820151613be781613a56565b608088015260a09182015191909601526020938401939190910190600101613b82565b50929695505050505050565b8035600581106139bc575f5ffd5b5f5f5f5f5f60808688031215613c38575f5ffd5b85356001600160401b03811115613c4d575f5ffd5b613c5988828901613acc565b90965094505060208601359250613c7260408701613c16565b9150613c80606087016139a6565b90509295509295909350565b6001600160a01b038616815260a0602082018190525f90613caf90830187613a00565b9050613cbe6040830186613a42565b613cc784613a56565b6060820193909352608001529392505050565b5f5f5f60408486031215613cec575f5ffd5b83356001600160401b03811115613d01575f5ffd5b613d0d86828701613acc565b9094509250613d20905060208501613c16565b90509250925092565b803580151581146139bc575f5ffd5b5f5f60408385031215613d49575f5ffd5b82359150613d5960208401613d29565b90509250929050565b5f5f5f60408486031215613d74575f5ffd5b8335925060208401356001600160401b03811115613d90575f5ffd5b613d9c86828701613acc565b9497909650939450505050565b5f60208284031215613db9575f5ffd5b6114ce82613c16565b602081525f6114ce6020830184613a00565b5f60208284031215613de4575f5ffd5b6114ce826139a6565b602080825282518282018190525f918401906040840190835b81811015613e24578351835260209384019390920191600101613e06565b509095945050505050565b8781526001600160a01b038716602082015260e0604082018190525f90613e5890830188613a00565b9050856060830152846080830152613e6f84613a56565b60a082019390935260c0015295945050505050565b5f5f5f60408486031215613e96575f5ffd5b83356001600160401b03811115613eab575f5ffd5b613eb786828701613acc565b909790965060209590950135949350505050565b5f5f5f60408486031215613edd575f5ffd5b613ee6846139a6565b925060208401356001600160401b03811115613d90575f5ffd5b5f5f5f5f60608587031215613f13575f5ffd5b613f1c856139a6565b935060208501356001600160401b03811115613f36575f5ffd5b613f4287828801613acc565b9094509250613f55905060408601613d29565b905092959194509250565b60068110613a5257613a52613a2e565b8a8152602081018a90526001600160a01b03898116604083015288811660608301528716608082015260a08101869052613fad60c0820186613f60565b8360e0820152826101008201526101406101208201525f613fd2610140830184613a00565b9c9b505050505050505050505050565b5f5f5f5f60608587031215613ff5575f5ffd5b84356001600160401b0381111561400a575f5ffd5b61401687828801613acc565b9095509350614029905060208601613c16565b9150613f55604086016139a6565b5f602082016020835280845180835260408501915060408160051b8601019250602086015f5b82811015613c0a57868503603f19018452815180516001600160a01b0316865260208082015160809188018290529061409890880182613a00565b604083810151151590890152606092830151929097019190915250602093840193919091019060010161405d565b5f602082016020835280845180835260408501915060408160051b8601019250602086015f5b82811015613c0a57603f1987860301845281518051865260018060a01b036020820151166020870152604081015160e0604088015261412e60e0880182613a00565b9050606082015160608801526080820151608088015260a082015161415281613a56565b60a088015260c091820151919096015260209384019391909101906001016140ec565b8881526001600160a01b0388811660208301528781166040830152861660608201526080810185905261010081016141b060a0830186613f60565b60c082019390935260e001529695505050505050565b8781526001600160a01b038716602082015260e0604082018190525f906141ef90830188613a00565b90508560608301526142046080830186613a42565b61420d84613a56565b60a08201939093526001600160a01b039190911660c09091015295945050505050565b6001600160a01b038716815260c0602082018190525f9061425390830188613a00565b905085604083015284606083015261426a84613a56565b608082019390935260a00152949350505050565b8681526001600160a01b038616602082015260c0604082018190525f906142a790830187613a00565b90506142b66060830186613a42565b61426a84613a56565b6001600160a01b03851681526080602082018190525f906142e290830186613a00565b9315156040830152506060015292915050565b600181811c9082168061430957607f821691505b60208210810361432757634e487b7160e01b5f52602260045260245ffd5b50919050565b60208082526021908201527f4f6e6c7920766572696669656420636861726974792063616e20646f207468696040820152607360f81b606082015260800190565b634e487b7160e01b5f52604160045260245ffd5b601f8211156143c957805f5260205f20601f840160051c810160208510156143a75750805b601f840160051c820191505b818110156143c6575f81556001016143b3565b50505b505050565b5f19600383901b1c191660019190911b1790565b81516001600160401b038111156143fb576143fb61436e565b61440f8161440984546142f5565b84614382565b6020601f82116001811461443c575f831561442a5750848201515b61443484826143ce565b8555506143c6565b5f84815260208120601f198516915b8281101561446b578785015182556020948501946001909201910161444b565b508482101561448857868401515f19600387901b60f8161c191681555b50505050600190811b01905550565b60208082526014908201527310da185c9a5d1e481b9bdd081d995c9a599a595960621b604082015260600190565b634e487b7160e01b5f52601160045260245ffd5b5f600182016144ea576144ea6144c5565b5060010190565b828152604081016114ce6020830184613a42565b634e487b7160e01b5f52603260045260245ffd5b602081016145278284613a42565b92915050565b6020808252601690820152754f6e6c792061646d696e2063616e20646f207468697360501b604082015260600190565b80820180821115614527576145276144c5565b6020808252601a9082015279151c985b9cd9995c881d1bc818da185c9a5d1e4819985a5b195960321b604082015260600190565b6020808252601690820152754f6e6c792062757965722063616e20646f207468697360501b604082015260600190565b6001600160401b038311156145eb576145eb61436e565b6145ff836145f983546142f5565b83614382565b5f601f84116001811461462b575f85156146195750838201355b61462386826143ce565b8455506143c6565b5f83815260208120601f198716915b8281101561465a578685013582556020948501946001909201910161463a565b5086821015614676575f1960f88860031b161c19848701351681555b505060018560011b0183555050505050565b60208152816020820152818360408301375f818301604090810191909152601f909201601f19160101919050565b828152604081016146c683613a56565b8260208301529392505050565b60208082526010908201526f139bdd081e5bdd5c881c995c5d595cdd60821b604082015260600190565b60208082526012908201527152657175657374206e6f742061637469766560701b604082015260600190565b6020810161473683613a56565b91905290565b6020808252600f908201526e496e76616c6964206164647265737360881b60408201526060019056fea2646970667358221220835db612b35d950729ec7778049b41c506e0bb4a3b9714276dfc526ad8ae711d64736f6c634300081c0033",
  "linkReferences": {},
  "deployedLinkReferences": {},
  "immutableReferences": {},
  "inputSourceName": "project/contracts/DonationPlatform.sol",
  "buildInfoId": "solc-0_8_28-cd3c4b5e7e514a13cb6c67cff104c8f098a90c41"
}